{
  "_format": "hh-sol-artifact-1",
  "contractName": "PcnVault",
  "sourceName": "contracts/cakevault/PcnVault.sol",
  "abi": [
    {
      "inputs": [
        {
          "internalType": "contract IERC20",
          "name": "_token",
          "type": "address"
        },
        {
          "internalType": "contract IERC20",
          "name": "_receiptToken",
          "type": "address"
        },
        {
          "internalType": "contract IMasterChef",
          "name": "_masterchef",
          "type": "address"
        },
        {
          "internalType": "address",
          "name": "_admin",
          "type": "address"
        },
        {
          "internalType": "address",
          "name": "_treasury",
          "type": "address"
        }
      ],
      "stateMutability": "nonpayable",
      "type": "constructor"
    },
    {
      "anonymous": false,
      "inputs": [
        {
          "indexed": true,
          "internalType": "address",
          "name": "sender",
          "type": "address"
        },
        {
          "indexed": false,
          "internalType": "uint256",
          "name": "amount",
          "type": "uint256"
        },
        {
          "indexed": false,
          "internalType": "uint256",
          "name": "shares",
          "type": "uint256"
        },
        {
          "indexed": false,
          "internalType": "uint256",
          "name": "lastDepositedTime",
          "type": "uint256"
        }
      ],
      "name": "Deposit",
      "type": "event"
    },
    {
      "anonymous": false,
      "inputs": [
        {
          "indexed": true,
          "internalType": "address",
          "name": "sender",
          "type": "address"
        },
        {
          "indexed": false,
          "internalType": "uint256",
          "name": "performanceFee",
          "type": "uint256"
        },
        {
          "indexed": false,
          "internalType": "uint256",
          "name": "callFee",
          "type": "uint256"
        }
      ],
      "name": "Harvest",
      "type": "event"
    },
    {
      "anonymous": false,
      "inputs": [
        {
          "indexed": true,
          "internalType": "address",
          "name": "previousOwner",
          "type": "address"
        },
        {
          "indexed": true,
          "internalType": "address",
          "name": "newOwner",
          "type": "address"
        }
      ],
      "name": "OwnershipTransferred",
      "type": "event"
    },
    {
      "anonymous": false,
      "inputs": [],
      "name": "Pause",
      "type": "event"
    },
    {
      "anonymous": false,
      "inputs": [
        {
          "indexed": false,
          "internalType": "address",
          "name": "account",
          "type": "address"
        }
      ],
      "name": "Paused",
      "type": "event"
    },
    {
      "anonymous": false,
      "inputs": [],
      "name": "Unpause",
      "type": "event"
    },
    {
      "anonymous": false,
      "inputs": [
        {
          "indexed": false,
          "internalType": "address",
          "name": "account",
          "type": "address"
        }
      ],
      "name": "Unpaused",
      "type": "event"
    },
    {
      "anonymous": false,
      "inputs": [
        {
          "indexed": true,
          "internalType": "address",
          "name": "sender",
          "type": "address"
        },
        {
          "indexed": false,
          "internalType": "uint256",
          "name": "amount",
          "type": "uint256"
        },
        {
          "indexed": false,
          "internalType": "uint256",
          "name": "shares",
          "type": "uint256"
        }
      ],
      "name": "Withdraw",
      "type": "event"
    },
    {
      "inputs": [],
      "name": "MAX_CALL_FEE",
      "outputs": [
        {
          "internalType": "uint256",
          "name": "",
          "type": "uint256"
        }
      ],
      "stateMutability": "view",
      "type": "function"
    },
    {
      "inputs": [],
      "name": "MAX_PERFORMANCE_FEE",
      "outputs": [
        {
          "internalType": "uint256",
          "name": "",
          "type": "uint256"
        }
      ],
      "stateMutability": "view",
      "type": "function"
    },
    {
      "inputs": [],
      "name": "MAX_WITHDRAW_FEE",
      "outputs": [
        {
          "internalType": "uint256",
          "name": "",
          "type": "uint256"
        }
      ],
      "stateMutability": "view",
      "type": "function"
    },
    {
      "inputs": [],
      "name": "MAX_WITHDRAW_FEE_PERIOD",
      "outputs": [
        {
          "internalType": "uint256",
          "name": "",
          "type": "uint256"
        }
      ],
      "stateMutability": "view",
      "type": "function"
    },
    {
      "inputs": [],
      "name": "admin",
      "outputs": [
        {
          "internalType": "address",
          "name": "",
          "type": "address"
        }
      ],
      "stateMutability": "view",
      "type": "function"
    },
    {
      "inputs": [],
      "name": "available",
      "outputs": [
        {
          "internalType": "uint256",
          "name": "",
          "type": "uint256"
        }
      ],
      "stateMutability": "view",
      "type": "function"
    },
    {
      "inputs": [],
      "name": "balanceOf",
      "outputs": [
        {
          "internalType": "uint256",
          "name": "",
          "type": "uint256"
        }
      ],
      "stateMutability": "view",
      "type": "function"
    },
    {
      "inputs": [],
      "name": "calculateHarvestCakeRewards",
      "outputs": [
        {
          "internalType": "uint256",
          "name": "",
          "type": "uint256"
        }
      ],
      "stateMutability": "view",
      "type": "function"
    },
    {
      "inputs": [],
      "name": "calculateTotalPendingCakeRewards",
      "outputs": [
        {
          "internalType": "uint256",
          "name": "",
          "type": "uint256"
        }
      ],
      "stateMutability": "view",
      "type": "function"
    },
    {
      "inputs": [],
      "name": "callFee",
      "outputs": [
        {
          "internalType": "uint256",
          "name": "",
          "type": "uint256"
        }
      ],
      "stateMutability": "view",
      "type": "function"
    },
    {
      "inputs": [
        {
          "internalType": "uint256",
          "name": "_amount",
          "type": "uint256"
        }
      ],
      "name": "deposit",
      "outputs": [],
      "stateMutability": "nonpayable",
      "type": "function"
    },
    {
      "inputs": [],
      "name": "emergencyWithdraw",
      "outputs": [],
      "stateMutability": "nonpayable",
      "type": "function"
    },
    {
      "inputs": [],
      "name": "getPricePerFullShare",
      "outputs": [
        {
          "internalType": "uint256",
          "name": "",
          "type": "uint256"
        }
      ],
      "stateMutability": "view",
      "type": "function"
    },
    {
      "inputs": [],
      "name": "harvest",
      "outputs": [],
      "stateMutability": "nonpayable",
      "type": "function"
    },
    {
      "inputs": [
        {
          "internalType": "address",
          "name": "_token",
          "type": "address"
        }
      ],
      "name": "inCaseTokensGetStuck",
      "outputs": [],
      "stateMutability": "nonpayable",
      "type": "function"
    },
    {
      "inputs": [],
      "name": "lastHarvestedTime",
      "outputs": [
        {
          "internalType": "uint256",
          "name": "",
          "type": "uint256"
        }
      ],
      "stateMutability": "view",
      "type": "function"
    },
    {
      "inputs": [],
      "name": "masterchef",
      "outputs": [
        {
          "internalType": "contract IMasterChef",
          "name": "",
          "type": "address"
        }
      ],
      "stateMutability": "view",
      "type": "function"
    },
    {
      "inputs": [],
      "name": "owner",
      "outputs": [
        {
          "internalType": "address",
          "name": "",
          "type": "address"
        }
      ],
      "stateMutability": "view",
      "type": "function"
    },
    {
      "inputs": [],
      "name": "pause",
      "outputs": [],
      "stateMutability": "nonpayable",
      "type": "function"
    },
    {
      "inputs": [],
      "name": "paused",
      "outputs": [
        {
          "internalType": "bool",
          "name": "",
          "type": "bool"
        }
      ],
      "stateMutability": "view",
      "type": "function"
    },
    {
      "inputs": [],
      "name": "performanceFee",
      "outputs": [
        {
          "internalType": "uint256",
          "name": "",
          "type": "uint256"
        }
      ],
      "stateMutability": "view",
      "type": "function"
    },
    {
      "inputs": [],
      "name": "receiptToken",
      "outputs": [
        {
          "internalType": "contract IERC20",
          "name": "",
          "type": "address"
        }
      ],
      "stateMutability": "view",
      "type": "function"
    },
    {
      "inputs": [],
      "name": "renounceOwnership",
      "outputs": [],
      "stateMutability": "nonpayable",
      "type": "function"
    },
    {
      "inputs": [
        {
          "internalType": "address",
          "name": "_admin",
          "type": "address"
        }
      ],
      "name": "setAdmin",
      "outputs": [],
      "stateMutability": "nonpayable",
      "type": "function"
    },
    {
      "inputs": [
        {
          "internalType": "uint256",
          "name": "_callFee",
          "type": "uint256"
        }
      ],
      "name": "setCallFee",
      "outputs": [],
      "stateMutability": "nonpayable",
      "type": "function"
    },
    {
      "inputs": [
        {
          "internalType": "uint256",
          "name": "_performanceFee",
          "type": "uint256"
        }
      ],
      "name": "setPerformanceFee",
      "outputs": [],
      "stateMutability": "nonpayable",
      "type": "function"
    },
    {
      "inputs": [
        {
          "internalType": "address",
          "name": "_treasury",
          "type": "address"
        }
      ],
      "name": "setTreasury",
      "outputs": [],
      "stateMutability": "nonpayable",
      "type": "function"
    },
    {
      "inputs": [
        {
          "internalType": "uint256",
          "name": "_withdrawFee",
          "type": "uint256"
        }
      ],
      "name": "setWithdrawFee",
      "outputs": [],
      "stateMutability": "nonpayable",
      "type": "function"
    },
    {
      "inputs": [
        {
          "internalType": "uint256",
          "name": "_withdrawFeePeriod",
          "type": "uint256"
        }
      ],
      "name": "setWithdrawFeePeriod",
      "outputs": [],
      "stateMutability": "nonpayable",
      "type": "function"
    },
    {
      "inputs": [],
      "name": "token",
      "outputs": [
        {
          "internalType": "contract IERC20",
          "name": "",
          "type": "address"
        }
      ],
      "stateMutability": "view",
      "type": "function"
    },
    {
      "inputs": [],
      "name": "totalShares",
      "outputs": [
        {
          "internalType": "uint256",
          "name": "",
          "type": "uint256"
        }
      ],
      "stateMutability": "view",
      "type": "function"
    },
    {
      "inputs": [
        {
          "internalType": "address",
          "name": "newOwner",
          "type": "address"
        }
      ],
      "name": "transferOwnership",
      "outputs": [],
      "stateMutability": "nonpayable",
      "type": "function"
    },
    {
      "inputs": [],
      "name": "treasury",
      "outputs": [
        {
          "internalType": "address",
          "name": "",
          "type": "address"
        }
      ],
      "stateMutability": "view",
      "type": "function"
    },
    {
      "inputs": [],
      "name": "unpause",
      "outputs": [],
      "stateMutability": "nonpayable",
      "type": "function"
    },
    {
      "inputs": [
        {
          "internalType": "address",
          "name": "",
          "type": "address"
        }
      ],
      "name": "userInfo",
      "outputs": [
        {
          "internalType": "uint256",
          "name": "shares",
          "type": "uint256"
        },
        {
          "internalType": "uint256",
          "name": "lastDepositedTime",
          "type": "uint256"
        },
        {
          "internalType": "uint256",
          "name": "cakeAtLastUserAction",
          "type": "uint256"
        },
        {
          "internalType": "uint256",
          "name": "lastUserActionTime",
          "type": "uint256"
        }
      ],
      "stateMutability": "view",
      "type": "function"
    },
    {
      "inputs": [
        {
          "internalType": "uint256",
          "name": "_shares",
          "type": "uint256"
        }
      ],
      "name": "withdraw",
      "outputs": [],
      "stateMutability": "nonpayable",
      "type": "function"
    },
    {
      "inputs": [],
      "name": "withdrawAll",
      "outputs": [],
      "stateMutability": "nonpayable",
      "type": "function"
    },
    {
      "inputs": [],
      "name": "withdrawFee",
      "outputs": [
        {
          "internalType": "uint256",
          "name": "",
          "type": "uint256"
        }
      ],
      "stateMutability": "view",
      "type": "function"
    },
    {
      "inputs": [],
      "name": "withdrawFeePeriod",
      "outputs": [
        {
          "internalType": "uint256",
          "name": "",
          "type": "uint256"
        }
      ],
      "stateMutability": "view",
      "type": "function"
    }
  ],
  "bytecode": "0x60e060405260c86006556019600755600a6008556203f4806009553480156200002757600080fd5b5060405162002a2738038062002a278339810160408190526200004a9162000468565b6200005e62000058620000e6565b620000ea565b6000805460ff60a01b191690556001600160601b0319606086811b821660805285811b821660a05284901b1660c052600480546001600160a01b038481166001600160a01b031992831617909255600580548484169216919091179055620000db90861684600019620015d56200013a602090811b91909117901c565b5050505050620006f6565b3390565b600080546001600160a01b038381166001600160a01b0319831681178455604051919092169283917f8be0079c531659141344cd1fd0a4f28419497f9722a3daafe3b4186f6b6457e09190a35050565b801580620001c95750604051636eb1769f60e11b81526001600160a01b0384169063dd62ed3e906200017390309086906004016200051e565b60206040518083038186803b1580156200018c57600080fd5b505afa158015620001a1573d6000803e3d6000fd5b505050506040513d601f19601f82011682018060405250810190620001c79190620004e7565b155b620001f15760405162461bcd60e51b8152600401620001e8906200064d565b60405180910390fd5b6200024c8363095ea7b360e01b84846040516024016200021392919062000538565b60408051808303601f190181529190526020810180516001600160e01b0319939093166001600160e01b03938416179052906200025116565b505050565b6000620002ad826040518060400160405280602081526020017f5361666545524332303a206c6f772d6c6576656c2063616c6c206661696c6564815250856001600160a01b0316620002ed60201b620016d4179092919060201c565b8051909150156200024c5780806020019051810190620002ce919062000446565b6200024c5760405162461bcd60e51b8152600401620001e89062000603565b6060620002fe848460008562000308565b90505b9392505050565b6060824710156200032d5760405162461bcd60e51b8152600401620001e89062000586565b6200033885620003d7565b620003575760405162461bcd60e51b8152600401620001e890620005cc565b600080866001600160a01b0316858760405162000375919062000500565b60006040518083038185875af1925050503d8060008114620003b4576040519150601f19603f3d011682016040523d82523d6000602084013e620003b9565b606091505b509092509050620003cc82828662000408565b979650505050505050565b600080826001600160a01b0316803b806020016040519081016040528181526000908060200190933c511192915050565b606083156200041957508162000301565b8251156200042a5782518084602001fd5b8160405162461bcd60e51b8152600401620001e8919062000551565b60006020828403121562000458578081fd5b8151801515811462000301578182fd5b600080600080600060a0868803121562000480578081fd5b85516200048d81620006dd565b6020870151909550620004a081620006dd565b6040870151909450620004b381620006dd565b6060870151909350620004c681620006dd565b6080870151909250620004d981620006dd565b809150509295509295909350565b600060208284031215620004f9578081fd5b5051919050565b6000825162000514818460208701620006aa565b9190910192915050565b6001600160a01b0392831681529116602082015260400190565b6001600160a01b03929092168252602082015260400190565b600060208252825180602084015262000572816040850160208701620006aa565b601f01601f19169190910160400192915050565b60208082526026908201527f416464726573733a20696e73756666696369656e742062616c616e636520666f6040820152651c8818d85b1b60d21b606082015260800190565b6020808252601d908201527f416464726573733a2063616c6c20746f206e6f6e2d636f6e7472616374000000604082015260600190565b6020808252602a908201527f5361666545524332303a204552433230206f7065726174696f6e20646964206e6040820152691bdd081cdd58d8d9595960b21b606082015260800190565b60208082526036908201527f5361666545524332303a20617070726f76652066726f6d206e6f6e2d7a65726f60408201527f20746f206e6f6e2d7a65726f20616c6c6f77616e636500000000000000000000606082015260800190565b60005b83811015620006c7578181015183820152602001620006ad565b83811115620006d7576000848401525b50505050565b6001600160a01b0381168114620006f357600080fd5b50565b60805160601c60a05160601c60c05160601c6122886200079f60003960008181610619015281816108f001528181610b0701528181610d0501528181610f82015281816112850152818161158f01526117dc01526000818161136d01526114640152600081816106fc0152818161077801528181610995015281816109ea01528181610a7801528181610daa0152818161114b0152818161131b01526115b301526122886000f3fe608060405234801561001057600080fd5b506004361061023d5760003560e01c8063853828b61161013b578063db2e21bc116100b8578063f0f442601161007c578063f0f44260146103ef578063f2fde38b14610402578063f851a44014610415578063fb1db2781461041d578063fc0c546a146104255761023d565b8063db2e21bc146103bc578063def68a9c146103c4578063df10b4e6146103d7578063e941fa78146103df578063ec78e832146103e75761023d565b8063b60f0531116100ff578063b60f053114610386578063b6ac642a1461038e578063b6b55f25146103a1578063bdca9165146103b4578063d4b0de2f146102965761023d565b8063853828b61461035e57806387788782146103665780638da5cb5b1461036e57806390321e1a146103765780639d72596b1461037e5761023d565b806348a0d754116101c957806370897b231161018d57806370897b231461032b578063715018a61461033e578063722713f71461034657806377c7b8fc1461034e5780638456cb59146103565761023d565b806348a0d754146102de57806358ebceb6146102e65780635c975abb146102ee57806361d027b314610303578063704b6c02146103185761023d565b80632cfc5f01116102105780632cfc5f01146102ab5780632e1a7d4d146102b35780633a98ef39146102c65780633f4ba83a146102ce5780634641257d146102d65761023d565b80631959a002146102425780631efac1b81461026e57806326465826146102835780632ad5a53f14610296575b600080fd5b610255610250366004611ad5565b61042d565b6040516102659493929190612187565b60405180910390f35b61028161027c366004611b1c565b610455565b005b610281610291366004611b1c565b6104b0565b61029e610500565b6040516102659190611c01565b61029e610505565b6102816102c1366004611b1c565b61050c565b61029e6107e8565b6102816107ee565b61028161086f565b61029e610a5e565b61029e610b02565b6102f6610bbe565b6040516102659190611bf6565b61030b610bce565b6040516102659190611b8b565b610281610326366004611ad5565b610bdd565b610281610339366004611b1c565b610c64565b610281610cb5565b61029e610d00565b61029e610e4a565b610281610e82565b610281610f04565b61029e610f62565b61030b610f68565b61029e610f77565b61029e610f7d565b61029e611052565b61028161039c366004611b1c565b611058565b6102816103af366004611b1c565b6110a8565b61029e61123e565b610281611244565b6102816103d2366004611ad5565b6112ef565b61029e611456565b61029e61145c565b61030b611462565b6102816103fd366004611ad5565b611486565b610281610410366004611ad5565b61150d565b61030b61157e565b61030b61158d565b61030b6115b1565b6001602081905260009182526040909120805491810154600282015460039092015490919084565b6004546001600160a01b031633146104885760405162461bcd60e51b815260040161047f90611fba565b60405180910390fd5b6203f4808111156104ab5760405162461bcd60e51b815260040161047f90612016565b600955565b6004546001600160a01b031633146104da5760405162461bcd60e51b815260040161047f90611fba565b60648111156104fb5760405162461bcd60e51b815260040161047f90611e5f565b600755565b606481565b6203f48081565b610515336116ed565b156105325760405162461bcd60e51b815260040161047f90611f8c565b3332146105515760405162461bcd60e51b815260040161047f90611c80565b3360009081526001602052604090208161057d5760405162461bcd60e51b815260040161047f90611ce5565b805482111561059e5760405162461bcd60e51b815260040161047f90611d9d565b60006105be6002546105b8856105b2610d00565b906116f3565b906116ff565b82549091506105cd908461170b565b82556002546105dc908461170b565b60025560006105e9610a5e565b9050818110156106b35760006105ff838361170b565b604051631058d28160e01b81529091506001600160a01b037f00000000000000000000000000000000000000000000000000000000000000001690631058d2819061064e908490600401611c01565b600060405180830381600087803b15801561066857600080fd5b505af115801561067c573d6000803e3d6000fd5b50505050600061068a610a5e565b90506000610698828561170b565b9050828110156106af576106ac8482611717565b94505b5050505b60095460018401546106c491611717565b4210156107335760006106e86127106105b8600854866116f390919063ffffffff16565b600554909150610725906001600160a01b037f00000000000000000000000000000000000000000000000000000000000000008116911683611723565b61072f838261170b565b9250505b82541561075d576107536002546105b861074b610d00565b8654906116f3565b6002840155610765565b600060028401555b42600384015561079f6001600160a01b037f0000000000000000000000000000000000000000000000000000000000000000163384611723565b336001600160a01b03167ff279e6a1f5e320cca91135676d9cb6e44ca8a08c0b88342bcdb1144f6511b56883866040516107da929190612163565b60405180910390a250505050565b60025481565b6004546001600160a01b031633146108185760405162461bcd60e51b815260040161047f90611fba565b610820610bbe565b61083c5760405162461bcd60e51b815260040161047f90611cb7565b610844611742565b6040517f7805862f689e2f13df9f062ff482ad3ad112aca9e0847911ed832e158c525b3390600090a1565b610878336116ed565b156108955760405162461bcd60e51b815260040161047f90611f8c565b3332146108b45760405162461bcd60e51b815260040161047f90611c80565b6108bc610bbe565b156108d95760405162461bcd60e51b815260040161047f90611efd565b604051631058d28160e01b81526001600160a01b037f00000000000000000000000000000000000000000000000000000000000000001690631058d2819061092690600090600401611c01565b600060405180830381600087803b15801561094057600080fd5b505af1158015610954573d6000803e3d6000fd5b505050506000610962610a5e565b905060006109816127106105b8600654856116f390919063ffffffff16565b6005549091506109be906001600160a01b037f00000000000000000000000000000000000000000000000000000000000000008116911683611723565b60006109db6127106105b8600754866116f390919063ffffffff16565b9050610a116001600160a01b037f0000000000000000000000000000000000000000000000000000000000000000163383611723565b610a196117b3565b4260035560405133907f71bab65ced2e5750775a0613be067df48ef06cf92a496ebf7663ae066092495490610a519085908590612163565b60405180910390a2505050565b6040516370a0823160e01b81526000906001600160a01b037f000000000000000000000000000000000000000000000000000000000000000016906370a0823190610aad903090600401611b8b565b60206040518083038186803b158015610ac557600080fd5b505afa158015610ad9573d6000803e3d6000fd5b505050506040513d601f19601f82011682018060405250810190610afd9190611b34565b905090565b6000807f00000000000000000000000000000000000000000000000000000000000000006001600160a01b0316631175a1dd6000306040518363ffffffff1660e01b8152600401610b54929190611c0a565b60206040518083038186803b158015610b6c57600080fd5b505afa158015610b80573d6000803e3d6000fd5b505050506040513d601f19601f82011682018060405250810190610ba49190611b34565b9050610bb8610bb1610a5e565b8290611717565b91505090565b600054600160a01b900460ff1690565b6005546001600160a01b031681565b610be5611846565b6001600160a01b0316610bf6610f68565b6001600160a01b031614610c1c5760405162461bcd60e51b815260040161047f90611f57565b6001600160a01b038116610c425760405162461bcd60e51b815260040161047f90611f27565b600480546001600160a01b0319166001600160a01b0392909216919091179055565b6004546001600160a01b03163314610c8e5760405162461bcd60e51b815260040161047f90611fba565b6101f4811115610cb05760405162461bcd60e51b815260040161047f90611ea7565b600655565b610cbd611846565b6001600160a01b0316610cce610f68565b6001600160a01b031614610cf45760405162461bcd60e51b815260040161047f90611f57565b610cfe600061184a565b565b6000807f00000000000000000000000000000000000000000000000000000000000000006001600160a01b03166393f1a40b6000306040518363ffffffff1660e01b8152600401610d52929190611c0a565b604080518083038186803b158015610d6957600080fd5b505afa158015610d7d573d6000803e3d6000fd5b505050506040513d601f19601f82011682018060405250810190610da19190611b4c565b509050610bb8817f00000000000000000000000000000000000000000000000000000000000000006001600160a01b03166370a08231306040518263ffffffff1660e01b8152600401610df49190611b8b565b60206040518083038186803b158015610e0c57600080fd5b505afa158015610e20573d6000803e3d6000fd5b505050506040513d601f19601f82011682018060405250810190610e449190611b34565b90611717565b6000600254600014610e7557610e706002546105b8670de0b6b3a76400006105b2610d00565b610afd565b50670de0b6b3a764000090565b6004546001600160a01b03163314610eac5760405162461bcd60e51b815260040161047f90611fba565b610eb4610bbe565b15610ed15760405162461bcd60e51b815260040161047f90611efd565b610ed961189a565b6040517f6985a02210a168e66602d3235cb6db0e70f92b3ba4d376a33c0f3d9434bff62590600090a1565b610f0d336116ed565b15610f2a5760405162461bcd60e51b815260040161047f90611f8c565b333214610f495760405162461bcd60e51b815260040161047f90611c80565b33600090815260016020526040902054610cfe9061050c565b60065481565b6000546001600160a01b031690565b60075481565b6000807f00000000000000000000000000000000000000000000000000000000000000006001600160a01b0316631175a1dd6000306040518363ffffffff1660e01b8152600401610fcf929190611c0a565b60206040518083038186803b158015610fe757600080fd5b505afa158015610ffb573d6000803e3d6000fd5b505050506040513d601f19601f8201168201806040525081019061101f9190611b34565b905061102c610bb1610a5e565b9050600061104b6127106105b8600754856116f390919063ffffffff16565b9250505090565b60035481565b6004546001600160a01b031633146110825760405162461bcd60e51b815260040161047f90611fba565b60648111156110a35760405162461bcd60e51b815260040161047f906120bd565b600855565b6110b0610bbe565b156110cd5760405162461bcd60e51b815260040161047f90611efd565b6110d6336116ed565b156110f35760405162461bcd60e51b815260040161047f90611f8c565b3332146111125760405162461bcd60e51b815260040161047f90611c80565b600081116111325760405162461bcd60e51b815260040161047f90611c54565b600061113c610d00565b90506111736001600160a01b037f0000000000000000000000000000000000000000000000000000000000000000163330856118fb565b600060025460001461119f57611198826105b8600254866116f390919063ffffffff16565b90506111a2565b50815b33600090815260016020526040902080546111bd9083611717565b81554260018201556002546111d29083611717565b60028190556111ee906105b86111e6610d00565b8454906116f3565b60028201554260038201556112016117b3565b336001600160a01b03167f36af321ec8d3c75236829c5317affd40ddb308863a1236d2d277a4025cccee1e8584426040516107da93929190612171565b6101f481565b6004546001600160a01b0316331461126e5760405162461bcd60e51b815260040161047f90611fba565b604051632989754760e11b81526001600160a01b037f00000000000000000000000000000000000000000000000000000000000000001690635312ea8e906112bb90600090600401611c01565b600060405180830381600087803b1580156112d557600080fd5b505af11580156112e9573d6000803e3d6000fd5b50505050565b6004546001600160a01b031633146113195760405162461bcd60e51b815260040161047f90611fba565b7f00000000000000000000000000000000000000000000000000000000000000006001600160a01b0316816001600160a01b0316141561136b5760405162461bcd60e51b815260040161047f90611d58565b7f00000000000000000000000000000000000000000000000000000000000000006001600160a01b0316816001600160a01b031614156113bd5760405162461bcd60e51b815260040161047f90611e1a565b6040516370a0823160e01b81526000906001600160a01b038316906370a08231906113ec903090600401611b8b565b60206040518083038186803b15801561140457600080fd5b505afa158015611418573d6000803e3d6000fd5b505050506040513d601f19601f8201168201806040525081019061143c9190611b34565b90506114526001600160a01b0383163383611723565b5050565b60095481565b60085481565b7f000000000000000000000000000000000000000000000000000000000000000081565b61148e611846565b6001600160a01b031661149f610f68565b6001600160a01b0316146114c55760405162461bcd60e51b815260040161047f90611f57565b6001600160a01b0381166114eb5760405162461bcd60e51b815260040161047f90611f27565b600580546001600160a01b0319166001600160a01b0392909216919091179055565b611515611846565b6001600160a01b0316611526610f68565b6001600160a01b03161461154c5760405162461bcd60e51b815260040161047f90611f57565b6001600160a01b0381166115725760405162461bcd60e51b815260040161047f90611d12565b61157b8161184a565b50565b6004546001600160a01b031681565b7f000000000000000000000000000000000000000000000000000000000000000081565b7f000000000000000000000000000000000000000000000000000000000000000081565b80158061165d5750604051636eb1769f60e11b81526001600160a01b0384169063dd62ed3e9061160b9030908690600401611b9f565b60206040518083038186803b15801561162357600080fd5b505afa158015611637573d6000803e3d6000fd5b505050506040513d601f19601f8201168201806040525081019061165b9190611b34565b155b6116795760405162461bcd60e51b815260040161047f9061210d565b6116cf8363095ea7b360e01b8484604051602401611698929190611bdd565b60408051601f198184030181529190526020810180516001600160e01b03166001600160e01b03199093169290921790915261191c565b505050565b60606116e384846000856119ab565b90505b9392505050565b3b151590565b60006116e682846121da565b60006116e682846121ba565b60006116e682846121f9565b60006116e682846121a2565b6116cf8363a9059cbb60e01b8484604051602401611698929190611bdd565b61174a610bbe565b6117665760405162461bcd60e51b815260040161047f90611cb7565b6000805460ff60a01b191690557f5db9ee0a495bf2e6ff9c91a7834c1ba4fdd244a5e8aa4e537bd38aeae4b073aa61179c611846565b6040516117a99190611b8b565b60405180910390a1565b60006117bd610a5e565b9050801561157b576040516341441d3b60e01b81526001600160a01b037f000000000000000000000000000000000000000000000000000000000000000016906341441d3b90611811908490600401611c01565b600060405180830381600087803b15801561182b57600080fd5b505af115801561183f573d6000803e3d6000fd5b5050505050565b3390565b600080546001600160a01b038381166001600160a01b0319831681178455604051919092169283917f8be0079c531659141344cd1fd0a4f28419497f9722a3daafe3b4186f6b6457e09190a35050565b6118a2610bbe565b156118bf5760405162461bcd60e51b815260040161047f90611efd565b6000805460ff60a01b1916600160a01b1790557f62e78cea01bee320cd4e420270b5ea74000d11b0c9f74754ebdbfc544b05a25861179c611846565b6112e9846323b872dd60e01b85858560405160240161169893929190611bb9565b6000611971826040518060400160405280602081526020017f5361666545524332303a206c6f772d6c6576656c2063616c6c206661696c6564815250856001600160a01b03166116d49092919063ffffffff16565b8051909150156116cf578080602001905181019061198f9190611afc565b6116cf5760405162461bcd60e51b815260040161047f90612073565b6060824710156119cd5760405162461bcd60e51b815260040161047f90611dd4565b6119d685611a6b565b6119f25760405162461bcd60e51b815260040161047f90611fdf565b600080866001600160a01b03168587604051611a0e9190611b6f565b60006040518083038185875af1925050503d8060008114611a4b576040519150601f19603f3d011682016040523d82523d6000602084013e611a50565b606091505b5091509150611a60828286611a9c565b979650505050505050565b600080826001600160a01b0316803b806020016040519081016040528181526000908060200190933c511192915050565b60608315611aab5750816116e6565b825115611abb5782518084602001fd5b8160405162461bcd60e51b815260040161047f9190611c21565b600060208284031215611ae6578081fd5b81356001600160a01b03811681146116e6578182fd5b600060208284031215611b0d578081fd5b815180151581146116e6578182fd5b600060208284031215611b2d578081fd5b5035919050565b600060208284031215611b45578081fd5b5051919050565b60008060408385031215611b5e578081fd5b505080516020909101519092909150565b60008251611b81818460208701612210565b9190910192915050565b6001600160a01b0391909116815260200190565b6001600160a01b0392831681529116602082015260400190565b6001600160a01b039384168152919092166020820152604081019190915260600190565b6001600160a01b03929092168252602082015260400190565b901515815260200190565b90815260200190565b9182526001600160a01b0316602082015260400190565b6000602082528251806020840152611c40816040850160208701612210565b601f01601f19169190910160400192915050565b602080825260129082015271139bdd1a1a5b99c81d1bc819195c1bdcda5d60721b604082015260600190565b6020808252601a908201527f70726f787920636f6e7472616374206e6f7420616c6c6f776564000000000000604082015260600190565b60208082526014908201527314185d5cd8589b194e881b9bdd081c185d5cd95960621b604082015260600190565b6020808252601390820152724e6f7468696e6720746f20776974686472617760681b604082015260600190565b60208082526026908201527f4f776e61626c653a206e6577206f776e657220697320746865207a65726f206160408201526564647265737360d01b606082015260800190565b60208082526025908201527f546f6b656e2063616e6e6f742062652073616d65206173206465706f736974206040820152643a37b5b2b760d91b606082015260800190565b6020808252601f908201527f576974686472617720616d6f756e7420657863656564732062616c616e636500604082015260600190565b60208082526026908201527f416464726573733a20696e73756666696369656e742062616c616e636520666f6040820152651c8818d85b1b60d21b606082015260800190565b60208082526025908201527f546f6b656e2063616e6e6f742062652073616d652061732072656365697074206040820152643a37b5b2b760d91b606082015260800190565b60208082526028908201527f63616c6c4665652063616e6e6f74206265206d6f7265207468616e204d41585f60408201526743414c4c5f46454560c01b606082015260800190565b60208082526036908201527f706572666f726d616e63654665652063616e6e6f74206265206d6f7265207468604082015275616e204d41585f504552464f524d414e43455f46454560501b606082015260800190565b60208082526010908201526f14185d5cd8589b194e881c185d5cd95960821b604082015260600190565b60208082526016908201527543616e6e6f74206265207a65726f206164647265737360501b604082015260600190565b6020808252818101527f4f776e61626c653a2063616c6c6572206973206e6f7420746865206f776e6572604082015260600190565b60208082526014908201527318dbdb9d1c9858dd081b9bdd08185b1b1bddd95960621b604082015260600190565b6020808252600b908201526a61646d696e3a207775743f60a81b604082015260600190565b6020808252601d908201527f416464726573733a2063616c6c20746f206e6f6e2d636f6e7472616374000000604082015260600190565b6020808252603d908201527f7769746864726177466565506572696f642063616e6e6f74206265206d6f726560408201527f207468616e204d41585f57495448445241575f4645455f504552494f44000000606082015260800190565b6020808252602a908201527f5361666545524332303a204552433230206f7065726174696f6e20646964206e6040820152691bdd081cdd58d8d9595960b21b606082015260800190565b60208082526030908201527f77697468647261774665652063616e6e6f74206265206d6f7265207468616e2060408201526f4d41585f57495448445241575f46454560801b606082015260800190565b60208082526036908201527f5361666545524332303a20617070726f76652066726f6d206e6f6e2d7a65726f60408201527520746f206e6f6e2d7a65726f20616c6c6f77616e636560501b606082015260800190565b918252602082015260400190565b9283526020830191909152604082015260600190565b93845260208401929092526040830152606082015260800190565b600082198211156121b5576121b561223c565b500190565b6000826121d557634e487b7160e01b81526012600452602481fd5b500490565b60008160001904831182151516156121f4576121f461223c565b500290565b60008282101561220b5761220b61223c565b500390565b60005b8381101561222b578181015183820152602001612213565b838111156112e95750506000910152565b634e487b7160e01b600052601160045260246000fdfea26469706673582212209363d3680e756c4eaebf6ceac54cf2f9fe47d0572571e58e5f04314c98d02a7664736f6c63430008000033",
  "linkReferences": {},
  "deployedLinkReferences": {}
}