{
  "_format": "hh-sol-artifact-1",
  "contractName": "PcnToken",
  "sourceName": "contracts/tokens/PcnToken.sol",
  "abi": [
    {
      "anonymous": false,
      "inputs": [
        {
          "indexed": true,
          "internalType": "address",
          "name": "owner",
          "type": "address"
        },
        {
          "indexed": true,
          "internalType": "address",
          "name": "spender",
          "type": "address"
        },
        {
          "indexed": false,
          "internalType": "uint256",
          "name": "value",
          "type": "uint256"
        }
      ],
      "name": "Approval",
      "type": "event"
    },
    {
      "anonymous": false,
      "inputs": [
        {
          "indexed": true,
          "internalType": "address",
          "name": "delegator",
          "type": "address"
        },
        {
          "indexed": true,
          "internalType": "address",
          "name": "fromDelegate",
          "type": "address"
        },
        {
          "indexed": true,
          "internalType": "address",
          "name": "toDelegate",
          "type": "address"
        }
      ],
      "name": "DelegateChanged",
      "type": "event"
    },
    {
      "anonymous": false,
      "inputs": [
        {
          "indexed": true,
          "internalType": "address",
          "name": "delegate",
          "type": "address"
        },
        {
          "indexed": false,
          "internalType": "uint256",
          "name": "previousBalance",
          "type": "uint256"
        },
        {
          "indexed": false,
          "internalType": "uint256",
          "name": "newBalance",
          "type": "uint256"
        }
      ],
      "name": "DelegateVotesChanged",
      "type": "event"
    },
    {
      "anonymous": false,
      "inputs": [
        {
          "indexed": true,
          "internalType": "address",
          "name": "previousOwner",
          "type": "address"
        },
        {
          "indexed": true,
          "internalType": "address",
          "name": "newOwner",
          "type": "address"
        }
      ],
      "name": "OwnershipTransferred",
      "type": "event"
    },
    {
      "anonymous": false,
      "inputs": [
        {
          "indexed": true,
          "internalType": "address",
          "name": "from",
          "type": "address"
        },
        {
          "indexed": true,
          "internalType": "address",
          "name": "to",
          "type": "address"
        },
        {
          "indexed": false,
          "internalType": "uint256",
          "name": "value",
          "type": "uint256"
        }
      ],
      "name": "Transfer",
      "type": "event"
    },
    {
      "inputs": [],
      "name": "DELEGATION_TYPEHASH",
      "outputs": [
        {
          "internalType": "bytes32",
          "name": "",
          "type": "bytes32"
        }
      ],
      "stateMutability": "view",
      "type": "function"
    },
    {
      "inputs": [],
      "name": "DOMAIN_TYPEHASH",
      "outputs": [
        {
          "internalType": "bytes32",
          "name": "",
          "type": "bytes32"
        }
      ],
      "stateMutability": "view",
      "type": "function"
    },
    {
      "inputs": [
        {
          "internalType": "address",
          "name": "owner",
          "type": "address"
        },
        {
          "internalType": "address",
          "name": "spender",
          "type": "address"
        }
      ],
      "name": "allowance",
      "outputs": [
        {
          "internalType": "uint256",
          "name": "",
          "type": "uint256"
        }
      ],
      "stateMutability": "view",
      "type": "function"
    },
    {
      "inputs": [
        {
          "internalType": "address",
          "name": "spender",
          "type": "address"
        },
        {
          "internalType": "uint256",
          "name": "amount",
          "type": "uint256"
        }
      ],
      "name": "approve",
      "outputs": [
        {
          "internalType": "bool",
          "name": "",
          "type": "bool"
        }
      ],
      "stateMutability": "nonpayable",
      "type": "function"
    },
    {
      "inputs": [
        {
          "internalType": "address",
          "name": "account",
          "type": "address"
        }
      ],
      "name": "balanceOf",
      "outputs": [
        {
          "internalType": "uint256",
          "name": "",
          "type": "uint256"
        }
      ],
      "stateMutability": "view",
      "type": "function"
    },
    {
      "inputs": [
        {
          "internalType": "address",
          "name": "",
          "type": "address"
        },
        {
          "internalType": "uint32",
          "name": "",
          "type": "uint32"
        }
      ],
      "name": "checkpoints",
      "outputs": [
        {
          "internalType": "uint32",
          "name": "fromBlock",
          "type": "uint32"
        },
        {
          "internalType": "uint256",
          "name": "votes",
          "type": "uint256"
        }
      ],
      "stateMutability": "view",
      "type": "function"
    },
    {
      "inputs": [],
      "name": "decimals",
      "outputs": [
        {
          "internalType": "uint8",
          "name": "",
          "type": "uint8"
        }
      ],
      "stateMutability": "view",
      "type": "function"
    },
    {
      "inputs": [
        {
          "internalType": "address",
          "name": "spender",
          "type": "address"
        },
        {
          "internalType": "uint256",
          "name": "subtractedValue",
          "type": "uint256"
        }
      ],
      "name": "decreaseAllowance",
      "outputs": [
        {
          "internalType": "bool",
          "name": "",
          "type": "bool"
        }
      ],
      "stateMutability": "nonpayable",
      "type": "function"
    },
    {
      "inputs": [
        {
          "internalType": "address",
          "name": "delegatee",
          "type": "address"
        }
      ],
      "name": "delegate",
      "outputs": [],
      "stateMutability": "nonpayable",
      "type": "function"
    },
    {
      "inputs": [
        {
          "internalType": "address",
          "name": "delegatee",
          "type": "address"
        },
        {
          "internalType": "uint256",
          "name": "nonce",
          "type": "uint256"
        },
        {
          "internalType": "uint256",
          "name": "expiry",
          "type": "uint256"
        },
        {
          "internalType": "uint8",
          "name": "v",
          "type": "uint8"
        },
        {
          "internalType": "bytes32",
          "name": "r",
          "type": "bytes32"
        },
        {
          "internalType": "bytes32",
          "name": "s",
          "type": "bytes32"
        }
      ],
      "name": "delegateBySig",
      "outputs": [],
      "stateMutability": "nonpayable",
      "type": "function"
    },
    {
      "inputs": [
        {
          "internalType": "address",
          "name": "delegator",
          "type": "address"
        }
      ],
      "name": "delegates",
      "outputs": [
        {
          "internalType": "address",
          "name": "",
          "type": "address"
        }
      ],
      "stateMutability": "view",
      "type": "function"
    },
    {
      "inputs": [
        {
          "internalType": "address",
          "name": "account",
          "type": "address"
        }
      ],
      "name": "getCurrentVotes",
      "outputs": [
        {
          "internalType": "uint256",
          "name": "",
          "type": "uint256"
        }
      ],
      "stateMutability": "view",
      "type": "function"
    },
    {
      "inputs": [
        {
          "internalType": "address",
          "name": "account",
          "type": "address"
        },
        {
          "internalType": "uint256",
          "name": "blockNumber",
          "type": "uint256"
        }
      ],
      "name": "getPriorVotes",
      "outputs": [
        {
          "internalType": "uint256",
          "name": "",
          "type": "uint256"
        }
      ],
      "stateMutability": "view",
      "type": "function"
    },
    {
      "inputs": [
        {
          "internalType": "address",
          "name": "spender",
          "type": "address"
        },
        {
          "internalType": "uint256",
          "name": "addedValue",
          "type": "uint256"
        }
      ],
      "name": "increaseAllowance",
      "outputs": [
        {
          "internalType": "bool",
          "name": "",
          "type": "bool"
        }
      ],
      "stateMutability": "nonpayable",
      "type": "function"
    },
    {
      "inputs": [
        {
          "internalType": "address",
          "name": "_to",
          "type": "address"
        },
        {
          "internalType": "uint256",
          "name": "_amount",
          "type": "uint256"
        }
      ],
      "name": "mint",
      "outputs": [],
      "stateMutability": "nonpayable",
      "type": "function"
    },
    {
      "inputs": [],
      "name": "name",
      "outputs": [
        {
          "internalType": "string",
          "name": "",
          "type": "string"
        }
      ],
      "stateMutability": "view",
      "type": "function"
    },
    {
      "inputs": [
        {
          "internalType": "address",
          "name": "",
          "type": "address"
        }
      ],
      "name": "nonces",
      "outputs": [
        {
          "internalType": "uint256",
          "name": "",
          "type": "uint256"
        }
      ],
      "stateMutability": "view",
      "type": "function"
    },
    {
      "inputs": [
        {
          "internalType": "address",
          "name": "",
          "type": "address"
        }
      ],
      "name": "numCheckpoints",
      "outputs": [
        {
          "internalType": "uint32",
          "name": "",
          "type": "uint32"
        }
      ],
      "stateMutability": "view",
      "type": "function"
    },
    {
      "inputs": [],
      "name": "owner",
      "outputs": [
        {
          "internalType": "address",
          "name": "",
          "type": "address"
        }
      ],
      "stateMutability": "view",
      "type": "function"
    },
    {
      "inputs": [],
      "name": "renounceOwnership",
      "outputs": [],
      "stateMutability": "nonpayable",
      "type": "function"
    },
    {
      "inputs": [],
      "name": "symbol",
      "outputs": [
        {
          "internalType": "string",
          "name": "",
          "type": "string"
        }
      ],
      "stateMutability": "view",
      "type": "function"
    },
    {
      "inputs": [],
      "name": "totalSupply",
      "outputs": [
        {
          "internalType": "uint256",
          "name": "",
          "type": "uint256"
        }
      ],
      "stateMutability": "view",
      "type": "function"
    },
    {
      "inputs": [
        {
          "internalType": "address",
          "name": "to",
          "type": "address"
        },
        {
          "internalType": "uint256",
          "name": "amount",
          "type": "uint256"
        }
      ],
      "name": "transfer",
      "outputs": [
        {
          "internalType": "bool",
          "name": "",
          "type": "bool"
        }
      ],
      "stateMutability": "nonpayable",
      "type": "function"
    },
    {
      "inputs": [
        {
          "internalType": "address",
          "name": "from",
          "type": "address"
        },
        {
          "internalType": "address",
          "name": "to",
          "type": "address"
        },
        {
          "internalType": "uint256",
          "name": "amount",
          "type": "uint256"
        }
      ],
      "name": "transferFrom",
      "outputs": [
        {
          "internalType": "bool",
          "name": "",
          "type": "bool"
        }
      ],
      "stateMutability": "nonpayable",
      "type": "function"
    },
    {
      "inputs": [
        {
          "internalType": "address",
          "name": "newOwner",
          "type": "address"
        }
      ],
      "name": "transferOwnership",
      "outputs": [],
      "stateMutability": "nonpayable",
      "type": "function"
    }
  ],
  "bytecode": "0x60806040523480156200001157600080fd5b506040518060400160405280600d81526020016c2837b831b7b937102a37b5b2b760991b815250604051806040016040528060038152602001622821a760e91b81525081600390805190602001906200006c929190620000fb565b50805162000082906004906020840190620000fb565b5050506200009f62000099620000a560201b60201c565b620000a9565b620001de565b3390565b600580546001600160a01b038381166001600160a01b0319831681179093556040519116919082907f8be0079c531659141344cd1fd0a4f28419497f9722a3daafe3b4186f6b6457e090600090a35050565b8280546200010990620001a1565b90600052602060002090601f0160209004810192826200012d576000855562000178565b82601f106200014857805160ff191683800117855562000178565b8280016001018555821562000178579182015b82811115620001785782518255916020019190600101906200015b565b50620001869291506200018a565b5090565b5b808211156200018657600081556001016200018b565b600281046001821680620001b657607f821691505b60208210811415620001d857634e487b7160e01b600052602260045260246000fd5b50919050565b611a9180620001ee6000396000f3fe608060405234801561001057600080fd5b50600436106101735760003560e01c8063715018a6116100de578063a9059cbb11610097578063dd62ed3e11610071578063dd62ed3e14610313578063e7a324dc14610326578063f1127ed81461032e578063f2fde38b1461034f57610173565b8063a9059cbb146102da578063b4b5ea57146102ed578063c3cda5201461030057610173565b8063715018a614610289578063782d6fe1146102915780637ecebe00146102a45780638da5cb5b146102b757806395d89b41146102bf578063a457c2d7146102c757610173565b8063395093511161013057806339509351146101fb57806340c10f191461020e578063587cde1e146102235780635c19a95c146102435780636fcfff451461025657806370a082311461027657610173565b806306fdde0314610178578063095ea7b31461019657806318160ddd146101b657806320606b70146101cb57806323b872dd146101d3578063313ce567146101e6575b600080fd5b610180610362565b60405161018d91906114e3565b60405180910390f35b6101a96101a4366004611375565b6103f4565b60405161018d9190611469565b6101be610418565b60405161018d9190611474565b6101be61041e565b6101a96101e136600461133a565b610442565b6101ee610470565b60405161018d9190611902565b6101a9610209366004611375565b610475565b61022161021c366004611375565b6104a1565b005b6102366102313660046112ee565b61051c565b60405161018d9190611455565b6102216102513660046112ee565b61053d565b6102696102643660046112ee565b61054a565b60405161018d91906118db565b6101be6102843660046112ee565b610562565b61022161057d565b6101be61029f366004611375565b6105c8565b6101be6102b23660046112ee565b6107ed565b6102366107ff565b61018061080e565b6101a96102d5366004611375565b61081d565b6101a96102e8366004611375565b610865565b6101be6102fb3660046112ee565b61087d565b61022161030e36600461139e565b6108f2565b6101be610321366004611308565b610acd565b6101be610af8565b61034161033c3660046113fc565b610b1c565b60405161018d9291906118ec565b61022161035d3660046112ee565b610b49565b606060038054610371906119bb565b80601f016020809104026020016040519081016040528092919081815260200182805461039d906119bb565b80156103ea5780601f106103bf576101008083540402835291602001916103ea565b820191906000526020600020905b8154815290600101906020018083116103cd57829003601f168201915b5050505050905090565b6000806103ff610bb7565b905061040c818585610bbb565b60019150505b92915050565b60025490565b7f8cad95687ba82c2ce50e74f7b754645e5117c3a5bec8151c0726d5857980a86681565b60008061044d610bb7565b905061045a858285610c6f565b610465858585610cb9565b506001949350505050565b601290565b600080610480610bb7565b905061040c8185856104928589610acd565b61049c9190611910565b610bbb565b6104a9610bb7565b6001600160a01b03166104ba6107ff565b6001600160a01b0316146104e95760405162461bcd60e51b81526004016104e09061170a565b60405180910390fd5b6104f38282610ddd565b6001600160a01b03808316600090815260066020526040812054610518921683610ea5565b5050565b6001600160a01b03808216600090815260066020526040902054165b919050565b6105473382611009565b50565b60086020526000908152604090205463ffffffff1681565b6001600160a01b031660009081526020819052604090205490565b610585610bb7565b6001600160a01b03166105966107ff565b6001600160a01b0316146105bc5760405162461bcd60e51b81526004016104e09061170a565b6105c66000611098565b565b60004382106105e95760405162461bcd60e51b81526004016104e09061173f565b6001600160a01b03831660009081526008602052604090205463ffffffff1680610617576000915050610412565b6001600160a01b0384166000908152600760205260408120849161063c600185611996565b63ffffffff908116825260208201929092526040016000205416116106a5576001600160a01b03841660009081526007602052604081209061067f600184611996565b63ffffffff1663ffffffff16815260200190815260200160002060010154915050610412565b6001600160a01b038416600090815260076020908152604080832083805290915290205463ffffffff168310156106e0576000915050610412565b6000806106ee600184611996565b90505b8163ffffffff168163ffffffff1611156107b657600060026107138484611996565b61071d9190611950565b6107279083611996565b6001600160a01b038816600090815260076020908152604080832063ffffffff808616855290835292819020815180830190925280549093168082526001909301549181019190915291925087141561078a576020015194506104129350505050565b805163ffffffff168711156107a1578193506107af565b6107ac600183611996565b92505b50506106f1565b506001600160a01b038516600090815260076020908152604080832063ffffffff9094168352929052206001015491505092915050565b60096020526000908152604090205481565b6005546001600160a01b031690565b606060048054610371906119bb565b600080610828610bb7565b905060006108368286610acd565b9050838110156108585760405162461bcd60e51b81526004016104e090611851565b6104658286868403610bbb565b600080610870610bb7565b905061040c818585610cb9565b6001600160a01b03811660009081526008602052604081205463ffffffff16806108a85760006108eb565b6001600160a01b0383166000908152600760205260408120906108cc600184611996565b63ffffffff1663ffffffff168152602001908152602001600020600101545b9392505050565b60007f8cad95687ba82c2ce50e74f7b754645e5117c3a5bec8151c0726d5857980a86661091d610362565b8051906020012061092c6110ea565b3060405160200161094094939291906114a1565b60405160208183030381529060405280519060200120905060007fe48329057bfd03d55e49b547132e39cffd9c1820ad7b9d4c5307691425d15adf888888604051602001610991949392919061147d565b604051602081830303815290604052805190602001209050600082826040516020016109be92919061143a565b6040516020818303038152906040528051906020012090506000600182888888604051600081526020016040526040516109fb94939291906114c5565b6020604051602081039080840390855afa158015610a1d573d6000803e3d6000fd5b5050604051601f1901519150506001600160a01b038116610a505760405162461bcd60e51b81526004016104e0906116c4565b6001600160a01b0381166000908152600960205260408120805491610a74836119f6565b919050558914610a965760405162461bcd60e51b81526004016104e090611786565b87421115610ab65760405162461bcd60e51b81526004016104e090611601565b610ac0818b611009565b505050505b505050505050565b6001600160a01b03918216600090815260016020908152604080832093909416825291909152205490565b7fe48329057bfd03d55e49b547132e39cffd9c1820ad7b9d4c5307691425d15adf81565b60076020908152600092835260408084209091529082529020805460019091015463ffffffff9091169082565b610b51610bb7565b6001600160a01b0316610b626107ff565b6001600160a01b031614610b885760405162461bcd60e51b81526004016104e09061170a565b6001600160a01b038116610bae5760405162461bcd60e51b81526004016104e090611579565b61054781611098565b3390565b6001600160a01b038316610be15760405162461bcd60e51b81526004016104e09061180d565b6001600160a01b038216610c075760405162461bcd60e51b81526004016104e0906115bf565b6001600160a01b0380841660008181526001602090815260408083209487168084529490915290819020849055517f8c5be1e5ebec7d5bd14f71427d1e84f3dd0314c0f7b2291e5b200ac8c7c3b92590610c62908590611474565b60405180910390a3505050565b6000610c7b8484610acd565b90506000198114610cb35781811015610ca65760405162461bcd60e51b81526004016104e090611647565b610cb38484848403610bbb565b50505050565b6001600160a01b038316610cdf5760405162461bcd60e51b81526004016104e0906117c8565b6001600160a01b038216610d055760405162461bcd60e51b81526004016104e090611536565b610d10838383611004565b6001600160a01b03831660009081526020819052604090205481811015610d495760405162461bcd60e51b81526004016104e09061167e565b6001600160a01b03808516600090815260208190526040808220858503905591851681529081208054849290610d80908490611910565b92505081905550826001600160a01b0316846001600160a01b03167fddf252ad1be2c89b69c2b068fc378daa952ba7f163c4a11628f55a4df523b3ef84604051610dca9190611474565b60405180910390a3610cb3848484611004565b6001600160a01b038216610e035760405162461bcd60e51b81526004016104e090611896565b610e0f60008383611004565b8060026000828254610e219190611910565b90915550506001600160a01b03821660009081526020819052604081208054839290610e4e908490611910565b90915550506040516001600160a01b038316906000907fddf252ad1be2c89b69c2b068fc378daa952ba7f163c4a11628f55a4df523b3ef90610e91908590611474565b60405180910390a361051860008383611004565b816001600160a01b0316836001600160a01b031614158015610ec75750600081115b15611004576001600160a01b03831615610f6a576001600160a01b03831660009081526008602052604081205463ffffffff169081610f07576000610f4a565b6001600160a01b038516600090815260076020526040812090610f2b600185611996565b63ffffffff1663ffffffff168152602001908152602001600020600101545b90506000610f5882856110ee565b9050610f66868484846110fa565b5050505b6001600160a01b03821615611004576001600160a01b03821660009081526008602052604081205463ffffffff169081610fa5576000610fe8565b6001600160a01b038416600090815260076020526040812090610fc9600185611996565b63ffffffff1663ffffffff168152602001908152602001600020600101545b90506000610ff6828561129b565b9050610ac5858484846110fa565b505050565b6001600160a01b038083166000908152600660205260408120549091169061103084610562565b6001600160a01b0385811660008181526006602052604080822080546001600160a01b031916898616908117909155905194955093928616927f3134e8a2e6d97e929a7e54011ea5485d7d196dd5f0ba4d4ef95803e8e3fc257f9190a4610cb3828483610ea5565b600580546001600160a01b038381166001600160a01b0319831681179093556040519116919082907f8be0079c531659141344cd1fd0a4f28419497f9722a3daafe3b4186f6b6457e090600090a35050565b4690565b60006108eb828461197f565b600061111e43604051806060016040528060348152602001611a28603491396112a7565b905060008463ffffffff1611801561117857506001600160a01b038516600090815260076020526040812063ffffffff83169161115c600188611996565b63ffffffff908116825260208201929092526040016000205416145b156111c1576001600160a01b038516600090815260076020526040812083916111a2600188611996565b63ffffffff168152602081019190915260400160002060010155611251565b60408051808201825263ffffffff838116825260208083018681526001600160a01b038a166000908152600783528581208a851682529092529390209151825463ffffffff191691161781559051600191820155611220908590611928565b6001600160a01b0386166000908152600860205260409020805463ffffffff191663ffffffff929092169190911790555b846001600160a01b03167fdec2bacdd2f05b59de34da9b523dff8be42e5e38e818c82fdb0bae774387a724848460405161128c9291906118cd565b60405180910390a25050505050565b60006108eb8284611910565b60008164010000000084106112cf5760405162461bcd60e51b81526004016104e091906114e3565b509192915050565b80356001600160a01b038116811461053857600080fd5b6000602082840312156112ff578081fd5b6108eb826112d7565b6000806040838503121561131a578081fd5b611323836112d7565b9150611331602084016112d7565b90509250929050565b60008060006060848603121561134e578081fd5b611357846112d7565b9250611365602085016112d7565b9150604084013590509250925092565b60008060408385031215611387578182fd5b611390836112d7565b946020939093013593505050565b60008060008060008060c087890312156113b6578182fd5b6113bf876112d7565b95506020870135945060408701359350606087013560ff811681146113e2578283fd5b9598949750929560808101359460a0909101359350915050565b6000806040838503121561140e578182fd5b611417836112d7565b9150602083013563ffffffff8116811461142f578182fd5b809150509250929050565b61190160f01b81526002810192909252602282015260420190565b6001600160a01b0391909116815260200190565b901515815260200190565b90815260200190565b9384526001600160a01b039290921660208401526040830152606082015260800190565b938452602084019290925260408301526001600160a01b0316606082015260800190565b93845260ff9290921660208401526040830152606082015260800190565b6000602080835283518082850152825b8181101561150f578581018301518582016040015282016114f3565b818111156115205783604083870101525b50601f01601f1916929092016040019392505050565b60208082526023908201527f45524332303a207472616e7366657220746f20746865207a65726f206164647260408201526265737360e81b606082015260800190565b60208082526026908201527f4f776e61626c653a206e6577206f776e657220697320746865207a65726f206160408201526564647265737360d01b606082015260800190565b60208082526022908201527f45524332303a20617070726f766520746f20746865207a65726f206164647265604082015261737360f01b606082015260800190565b60208082526026908201527f43414b453a3a64656c656761746542795369673a207369676e617475726520656040820152651e1c1a5c995960d21b606082015260800190565b6020808252601d908201527f45524332303a20696e73756666696369656e7420616c6c6f77616e6365000000604082015260600190565b60208082526026908201527f45524332303a207472616e7366657220616d6f756e7420657863656564732062604082015265616c616e636560d01b606082015260800190565b60208082526026908201527f43414b453a3a64656c656761746542795369673a20696e76616c6964207369676040820152656e617475726560d01b606082015260800190565b6020808252818101527f4f776e61626c653a2063616c6c6572206973206e6f7420746865206f776e6572604082015260600190565b60208082526027908201527f43414b453a3a6765745072696f72566f7465733a206e6f742079657420646574604082015266195c9b5a5b995960ca1b606082015260800190565b60208082526022908201527f43414b453a3a64656c656761746542795369673a20696e76616c6964206e6f6e604082015261636560f01b606082015260800190565b60208082526025908201527f45524332303a207472616e736665722066726f6d20746865207a65726f206164604082015264647265737360d81b606082015260800190565b60208082526024908201527f45524332303a20617070726f76652066726f6d20746865207a65726f206164646040820152637265737360e01b606082015260800190565b60208082526025908201527f45524332303a2064656372656173656420616c6c6f77616e63652062656c6f77604082015264207a65726f60d81b606082015260800190565b6020808252601f908201527f45524332303a206d696e7420746f20746865207a65726f206164647265737300604082015260600190565b918252602082015260400190565b63ffffffff91909116815260200190565b63ffffffff929092168252602082015260400190565b60ff91909116815260200190565b6000821982111561192357611923611a11565b500190565b600063ffffffff80831681851680830382111561194757611947611a11565b01949350505050565b600063ffffffff8084168061197357634e487b7160e01b83526012600452602483fd5b92169190910492915050565b60008282101561199157611991611a11565b500390565b600063ffffffff838116908316818110156119b3576119b3611a11565b039392505050565b6002810460018216806119cf57607f821691505b602082108114156119f057634e487b7160e01b600052602260045260246000fd5b50919050565b6000600019821415611a0a57611a0a611a11565b5060010190565b634e487b7160e01b600052601160045260246000fdfe43414b453a3a5f7772697465436865636b706f696e743a20626c6f636b206e756d62657220657863656564732033322062697473a2646970667358221220c884fa54fe5b90a9b602b85b162d78b829667c757a57532de588541400960e0f64736f6c63430008000033",
  "linkReferences": {},
  "deployedLinkReferences": {}
}