{
  "_format": "hh-sol-artifact-1",
  "contractName": "ERC20",
  "sourceName": "contracts/exchange-protocol/ERC20.sol",
  "abi": [
    {
      "inputs": [
        {
          "internalType": "string",
          "name": "name_",
          "type": "string"
        },
        {
          "internalType": "string",
          "name": "symbol_",
          "type": "string"
        },
        {
          "internalType": "uint8",
          "name": "decimals_",
          "type": "uint8"
        }
      ],
      "stateMutability": "nonpayable",
      "type": "constructor"
    },
    {
      "anonymous": false,
      "inputs": [
        {
          "indexed": true,
          "internalType": "address",
          "name": "owner",
          "type": "address"
        },
        {
          "indexed": true,
          "internalType": "address",
          "name": "spender",
          "type": "address"
        },
        {
          "indexed": false,
          "internalType": "uint256",
          "name": "value",
          "type": "uint256"
        }
      ],
      "name": "Approval",
      "type": "event"
    },
    {
      "anonymous": false,
      "inputs": [
        {
          "indexed": true,
          "internalType": "address",
          "name": "previousOwner",
          "type": "address"
        },
        {
          "indexed": true,
          "internalType": "address",
          "name": "newOwner",
          "type": "address"
        }
      ],
      "name": "OwnershipTransferred",
      "type": "event"
    },
    {
      "anonymous": false,
      "inputs": [
        {
          "indexed": true,
          "internalType": "address",
          "name": "from",
          "type": "address"
        },
        {
          "indexed": true,
          "internalType": "address",
          "name": "to",
          "type": "address"
        },
        {
          "indexed": false,
          "internalType": "uint256",
          "name": "value",
          "type": "uint256"
        }
      ],
      "name": "Transfer",
      "type": "event"
    },
    {
      "inputs": [],
      "name": "_totalSupply",
      "outputs": [
        {
          "internalType": "uint256",
          "name": "",
          "type": "uint256"
        }
      ],
      "stateMutability": "view",
      "type": "function"
    },
    {
      "inputs": [
        {
          "internalType": "address",
          "name": "account",
          "type": "address"
        },
        {
          "internalType": "address",
          "name": "spender",
          "type": "address"
        }
      ],
      "name": "allowance",
      "outputs": [
        {
          "internalType": "uint256",
          "name": "",
          "type": "uint256"
        }
      ],
      "stateMutability": "view",
      "type": "function"
    },
    {
      "inputs": [
        {
          "internalType": "address",
          "name": "spender",
          "type": "address"
        },
        {
          "internalType": "uint256",
          "name": "amount",
          "type": "uint256"
        }
      ],
      "name": "approve",
      "outputs": [
        {
          "internalType": "bool",
          "name": "",
          "type": "bool"
        }
      ],
      "stateMutability": "nonpayable",
      "type": "function"
    },
    {
      "inputs": [
        {
          "internalType": "address",
          "name": "account",
          "type": "address"
        }
      ],
      "name": "balanceOf",
      "outputs": [
        {
          "internalType": "uint256",
          "name": "",
          "type": "uint256"
        }
      ],
      "stateMutability": "view",
      "type": "function"
    },
    {
      "inputs": [],
      "name": "decimals",
      "outputs": [
        {
          "internalType": "uint8",
          "name": "",
          "type": "uint8"
        }
      ],
      "stateMutability": "view",
      "type": "function"
    },
    {
      "inputs": [
        {
          "internalType": "address",
          "name": "spender",
          "type": "address"
        },
        {
          "internalType": "uint256",
          "name": "subtractedValue",
          "type": "uint256"
        }
      ],
      "name": "decreaseAllowance",
      "outputs": [
        {
          "internalType": "bool",
          "name": "",
          "type": "bool"
        }
      ],
      "stateMutability": "nonpayable",
      "type": "function"
    },
    {
      "inputs": [],
      "name": "getOwner",
      "outputs": [
        {
          "internalType": "address",
          "name": "",
          "type": "address"
        }
      ],
      "stateMutability": "view",
      "type": "function"
    },
    {
      "inputs": [
        {
          "internalType": "address",
          "name": "spender",
          "type": "address"
        },
        {
          "internalType": "uint256",
          "name": "addedValue",
          "type": "uint256"
        }
      ],
      "name": "increaseAllowance",
      "outputs": [
        {
          "internalType": "bool",
          "name": "",
          "type": "bool"
        }
      ],
      "stateMutability": "nonpayable",
      "type": "function"
    },
    {
      "inputs": [
        {
          "internalType": "uint256",
          "name": "amount",
          "type": "uint256"
        }
      ],
      "name": "mint",
      "outputs": [
        {
          "internalType": "bool",
          "name": "",
          "type": "bool"
        }
      ],
      "stateMutability": "nonpayable",
      "type": "function"
    },
    {
      "inputs": [],
      "name": "name",
      "outputs": [
        {
          "internalType": "string",
          "name": "",
          "type": "string"
        }
      ],
      "stateMutability": "view",
      "type": "function"
    },
    {
      "inputs": [],
      "name": "owner",
      "outputs": [
        {
          "internalType": "address",
          "name": "",
          "type": "address"
        }
      ],
      "stateMutability": "view",
      "type": "function"
    },
    {
      "inputs": [],
      "name": "renounceOwnership",
      "outputs": [],
      "stateMutability": "nonpayable",
      "type": "function"
    },
    {
      "inputs": [],
      "name": "symbol",
      "outputs": [
        {
          "internalType": "string",
          "name": "",
          "type": "string"
        }
      ],
      "stateMutability": "view",
      "type": "function"
    },
    {
      "inputs": [],
      "name": "totalSupply",
      "outputs": [
        {
          "internalType": "uint256",
          "name": "",
          "type": "uint256"
        }
      ],
      "stateMutability": "view",
      "type": "function"
    },
    {
      "inputs": [
        {
          "internalType": "address",
          "name": "recipient",
          "type": "address"
        },
        {
          "internalType": "uint256",
          "name": "amount",
          "type": "uint256"
        }
      ],
      "name": "transfer",
      "outputs": [
        {
          "internalType": "bool",
          "name": "",
          "type": "bool"
        }
      ],
      "stateMutability": "nonpayable",
      "type": "function"
    },
    {
      "inputs": [
        {
          "internalType": "address",
          "name": "sender",
          "type": "address"
        },
        {
          "internalType": "address",
          "name": "recipient",
          "type": "address"
        },
        {
          "internalType": "uint256",
          "name": "amount",
          "type": "uint256"
        }
      ],
      "name": "transferFrom",
      "outputs": [
        {
          "internalType": "bool",
          "name": "",
          "type": "bool"
        }
      ],
      "stateMutability": "nonpayable",
      "type": "function"
    },
    {
      "inputs": [
        {
          "internalType": "address",
          "name": "newOwner",
          "type": "address"
        }
      ],
      "name": "transferOwnership",
      "outputs": [],
      "stateMutability": "nonpayable",
      "type": "function"
    }
  ],
  "bytecode": "0x60806040523480156200001157600080fd5b50604051620010a2380380620010a283398101604081905262000034916200021d565b825162000049906003906020860190620000c4565b5081516200005f906004906020850190620000c4565b5060058054336101009081026001600160a81b031990921660ff851617919091179182905560405191046001600160a01b0316906000907f8be0079c531659141344cd1fd0a4f28419497f9722a3daafe3b4186f6b6457e0908290a3505050620002f1565b828054620000d2906200029e565b90600052602060002090601f016020900481019282620000f6576000855562000141565b82601f106200011157805160ff191683800117855562000141565b8280016001018555821562000141579182015b828111156200014157825182559160200191906001019062000124565b506200014f92915062000153565b5090565b5b808211156200014f576000815560010162000154565b600082601f8301126200017b578081fd5b81516001600160401b0380821115620001985762000198620002db565b604051601f8301601f19908116603f01168101908282118183101715620001c357620001c3620002db565b81604052838152602092508683858801011115620001df578485fd5b8491505b83821015620002025785820183015181830184015290820190620001e3565b838211156200021357848385830101525b9695505050505050565b60008060006060848603121562000232578283fd5b83516001600160401b038082111562000249578485fd5b62000257878388016200016a565b945060208601519150808211156200026d578384fd5b506200027c868287016200016a565b925050604084015160ff8116811462000293578182fd5b809150509250925092565b600181811c90821680620002b357607f821691505b60208210811415620002d557634e487b7160e01b600052602260045260246000fd5b50919050565b634e487b7160e01b600052604160045260246000fd5b610da180620003016000396000f3fe608060405234801561001057600080fd5b506004361061010b5760003560e01c8063715018a6116100a2578063a0712d6811610071578063a0712d6814610222578063a457c2d714610235578063a9059cbb14610248578063dd62ed3e1461025b578063f2fde38b1461029457600080fd5b8063715018a6146101d0578063893d20e8146101da5780638da5cb5b1461020457806395d89b411461021a57600080fd5b8063313ce567116100de578063313ce56714610176578063395093511461018b5780633eaaf86b1461019e57806370a08231146101a757600080fd5b806306fdde0314610110578063095ea7b31461012e57806318160ddd1461015157806323b872dd14610163575b600080fd5b6101186102a7565b6040516101259190610c2c565b60405180910390f35b61014161013c366004610beb565b610339565b6040519015158152602001610125565b6002545b604051908152602001610125565b610141610171366004610bb0565b61034f565b60055460405160ff9091168152602001610125565b610141610199366004610beb565b61042a565b61015560025481565b6101556101b5366004610b5d565b6001600160a01b031660009081526020819052604090205490565b6101d8610488565b005b60055461010090046001600160a01b03165b6040516001600160a01b039091168152602001610125565b60055461010090046001600160a01b03166101ec565b610118610507565b610141610230366004610c14565b610516565b610141610243366004610beb565b61055b565b610141610256366004610beb565b6105fa565b610155610269366004610b7e565b6001600160a01b03918216600090815260016020908152604080832093909416825291909152205490565b6101d86102a2366004610b5d565b610607565b6060600380546102b690610d1a565b80601f01602080910402602001604051908101604052809291908181526020018280546102e290610d1a565b801561032f5780601f106103045761010080835404028352916020019161032f565b820191906000526020600020905b81548152906001019060200180831161031257829003601f168201915b5050505050905090565b6000610346338484610642565b50600192915050565b600061035c848484610767565b6001600160a01b03841660009081526001602090815260408083203384529091529020548211156103e55760405162461bcd60e51b815260206004820152602860248201527f45524332303a207472616e7366657220616d6f756e74206578636565647320616044820152676c6c6f77616e636560c01b60648201526084015b60405180910390fd5b6001600160a01b03841660009081526001602090815260408083203380855292529091205461042091869161041b908690610d03565b610642565b5060019392505050565b3360009081526001602090815260408083206001600160a01b0386168452909152812054819061045b908490610ceb565b90508281101561047d5760405162461bcd60e51b81526004016103dc90610c7f565b610420338583610642565b60055461010090046001600160a01b031633146104b75760405162461bcd60e51b81526004016103dc90610cb6565b60055460405160009161010090046001600160a01b0316907f8be0079c531659141344cd1fd0a4f28419497f9722a3daafe3b4186f6b6457e0908390a360058054610100600160a81b0319169055565b6060600480546102b690610d1a565b60055460009061010090046001600160a01b031633146105485760405162461bcd60e51b81526004016103dc90610cb6565b6105523383610970565b5060015b919050565b3360009081526001602090815260408083209091528120548211156105d05760405162461bcd60e51b815260206004820152602560248201527f45524332303a2064656372656173656420616c6c6f77616e63652062656c6f77604482015264207a65726f60d81b60648201526084016103dc565b3360008181526001602090815260408083209091529020546103469190859061041b908690610d03565b6000610346338484610767565b60055461010090046001600160a01b031633146106365760405162461bcd60e51b81526004016103dc90610cb6565b61063f81610a7a565b50565b6001600160a01b0383166106a45760405162461bcd60e51b8152602060048201526024808201527f48524332303a20617070726f76652066726f6d20746865207a65726f206164646044820152637265737360e01b60648201526084016103dc565b6001600160a01b0382166107055760405162461bcd60e51b815260206004820152602260248201527f48524332303a20617070726f766520746f20746865207a65726f206164647265604482015261737360f01b60648201526084016103dc565b6001600160a01b0383811660008181526001602090815260408083209487168084529482529182902085905590518481527f8c5be1e5ebec7d5bd14f71427d1e84f3dd0314c0f7b2291e5b200ac8c7c3b92591015b60405180910390a3505050565b6001600160a01b0383166107cb5760405162461bcd60e51b815260206004820152602560248201527f48524332303a207472616e736665722066726f6d20746865207a65726f206164604482015264647265737360d81b60648201526084016103dc565b6001600160a01b03821661082d5760405162461bcd60e51b815260206004820152602360248201527f48524332303a207472616e7366657220746f20746865207a65726f206164647260448201526265737360e81b60648201526084016103dc565b6001600160a01b0383166000908152602081905260409020548111156108a45760405162461bcd60e51b815260206004820152602660248201527f45524332303a207472616e7366657220616d6f756e7420657863656564732062604482015265616c616e636560d01b60648201526084016103dc565b6001600160a01b038316600090815260208190526040812080548392906108cc908490610d03565b90915550506001600160a01b0382166000908152602081905260408120546108f5908390610ceb565b9050818110156109175760405162461bcd60e51b81526004016103dc90610c7f565b6001600160a01b0383811660008181526020818152604091829020859055905185815291928716917fddf252ad1be2c89b69c2b068fc378daa952ba7f163c4a11628f55a4df523b3ef910160405180910390a350505050565b6001600160a01b0382166109c65760405162461bcd60e51b815260206004820152601f60248201527f48524332303a206d696e7420746f20746865207a65726f20616464726573730060448201526064016103dc565b6000816002546109d69190610ceb565b9050818110156109f85760405162461bcd60e51b81526004016103dc90610c7f565b8160026000828254610a0a9190610ceb565b90915550506001600160a01b03831660009081526020819052604081208054849290610a37908490610ceb565b90915550506040518281526001600160a01b038416906000907fddf252ad1be2c89b69c2b068fc378daa952ba7f163c4a11628f55a4df523b3ef9060200161075a565b6001600160a01b038116610adf5760405162461bcd60e51b815260206004820152602660248201527f4f776e61626c653a206e6577206f776e657220697320746865207a65726f206160448201526564647265737360d01b60648201526084016103dc565b6005546040516001600160a01b0380841692610100900416907f8be0079c531659141344cd1fd0a4f28419497f9722a3daafe3b4186f6b6457e090600090a3600580546001600160a01b0390921661010002610100600160a81b0319909216919091179055565b80356001600160a01b038116811461055657600080fd5b600060208284031215610b6e578081fd5b610b7782610b46565b9392505050565b60008060408385031215610b90578081fd5b610b9983610b46565b9150610ba760208401610b46565b90509250929050565b600080600060608486031215610bc4578081fd5b610bcd84610b46565b9250610bdb60208501610b46565b9150604084013590509250925092565b60008060408385031215610bfd578182fd5b610c0683610b46565b946020939093013593505050565b600060208284031215610c25578081fd5b5035919050565b6000602080835283518082850152825b81811015610c5857858101830151858201604001528201610c3c565b81811115610c695783604083870101525b50601f01601f1916929092016040019392505050565b6020808252601b908201527f536166654d6174683a206164646974696f6e206f766572666c6f770000000000604082015260600190565b6020808252818101527f4f776e61626c653a2063616c6c6572206973206e6f7420746865206f776e6572604082015260600190565b60008219821115610cfe57610cfe610d55565b500190565b600082821015610d1557610d15610d55565b500390565b600181811c90821680610d2e57607f821691505b60208210811415610d4f57634e487b7160e01b600052602260045260246000fd5b50919050565b634e487b7160e01b600052601160045260246000fdfea2646970667358221220255fdb71032a3a68613fce19e697c80ea441a0f4bb11bce13dd31af6efe7550664736f6c63430008040033",
  "linkReferences": {},
  "deployedLinkReferences": {}
}