{
  "_format": "hh-sol-artifact-1",
  "contractName": "CornToken",
  "sourceName": "contracts/tokens/CornToken.sol",
  "abi": [
    {
      "inputs": [
        {
          "internalType": "contract PcnToken",
          "name": "_cake",
          "type": "address"
        }
      ],
      "stateMutability": "nonpayable",
      "type": "constructor"
    },
    {
      "anonymous": false,
      "inputs": [
        {
          "indexed": true,
          "internalType": "address",
          "name": "owner",
          "type": "address"
        },
        {
          "indexed": true,
          "internalType": "address",
          "name": "spender",
          "type": "address"
        },
        {
          "indexed": false,
          "internalType": "uint256",
          "name": "value",
          "type": "uint256"
        }
      ],
      "name": "Approval",
      "type": "event"
    },
    {
      "anonymous": false,
      "inputs": [
        {
          "indexed": true,
          "internalType": "address",
          "name": "delegator",
          "type": "address"
        },
        {
          "indexed": true,
          "internalType": "address",
          "name": "fromDelegate",
          "type": "address"
        },
        {
          "indexed": true,
          "internalType": "address",
          "name": "toDelegate",
          "type": "address"
        }
      ],
      "name": "DelegateChanged",
      "type": "event"
    },
    {
      "anonymous": false,
      "inputs": [
        {
          "indexed": true,
          "internalType": "address",
          "name": "delegate",
          "type": "address"
        },
        {
          "indexed": false,
          "internalType": "uint256",
          "name": "previousBalance",
          "type": "uint256"
        },
        {
          "indexed": false,
          "internalType": "uint256",
          "name": "newBalance",
          "type": "uint256"
        }
      ],
      "name": "DelegateVotesChanged",
      "type": "event"
    },
    {
      "anonymous": false,
      "inputs": [
        {
          "indexed": true,
          "internalType": "address",
          "name": "previousOwner",
          "type": "address"
        },
        {
          "indexed": true,
          "internalType": "address",
          "name": "newOwner",
          "type": "address"
        }
      ],
      "name": "OwnershipTransferred",
      "type": "event"
    },
    {
      "anonymous": false,
      "inputs": [
        {
          "indexed": true,
          "internalType": "address",
          "name": "from",
          "type": "address"
        },
        {
          "indexed": true,
          "internalType": "address",
          "name": "to",
          "type": "address"
        },
        {
          "indexed": false,
          "internalType": "uint256",
          "name": "value",
          "type": "uint256"
        }
      ],
      "name": "Transfer",
      "type": "event"
    },
    {
      "inputs": [],
      "name": "DELEGATION_TYPEHASH",
      "outputs": [
        {
          "internalType": "bytes32",
          "name": "",
          "type": "bytes32"
        }
      ],
      "stateMutability": "view",
      "type": "function"
    },
    {
      "inputs": [],
      "name": "DOMAIN_TYPEHASH",
      "outputs": [
        {
          "internalType": "bytes32",
          "name": "",
          "type": "bytes32"
        }
      ],
      "stateMutability": "view",
      "type": "function"
    },
    {
      "inputs": [
        {
          "internalType": "address",
          "name": "owner",
          "type": "address"
        },
        {
          "internalType": "address",
          "name": "spender",
          "type": "address"
        }
      ],
      "name": "allowance",
      "outputs": [
        {
          "internalType": "uint256",
          "name": "",
          "type": "uint256"
        }
      ],
      "stateMutability": "view",
      "type": "function"
    },
    {
      "inputs": [
        {
          "internalType": "address",
          "name": "spender",
          "type": "address"
        },
        {
          "internalType": "uint256",
          "name": "amount",
          "type": "uint256"
        }
      ],
      "name": "approve",
      "outputs": [
        {
          "internalType": "bool",
          "name": "",
          "type": "bool"
        }
      ],
      "stateMutability": "nonpayable",
      "type": "function"
    },
    {
      "inputs": [
        {
          "internalType": "address",
          "name": "account",
          "type": "address"
        }
      ],
      "name": "balanceOf",
      "outputs": [
        {
          "internalType": "uint256",
          "name": "",
          "type": "uint256"
        }
      ],
      "stateMutability": "view",
      "type": "function"
    },
    {
      "inputs": [
        {
          "internalType": "address",
          "name": "_from",
          "type": "address"
        },
        {
          "internalType": "uint256",
          "name": "_amount",
          "type": "uint256"
        }
      ],
      "name": "burn",
      "outputs": [],
      "stateMutability": "nonpayable",
      "type": "function"
    },
    {
      "inputs": [],
      "name": "cake",
      "outputs": [
        {
          "internalType": "contract PcnToken",
          "name": "",
          "type": "address"
        }
      ],
      "stateMutability": "view",
      "type": "function"
    },
    {
      "inputs": [
        {
          "internalType": "address",
          "name": "",
          "type": "address"
        },
        {
          "internalType": "uint32",
          "name": "",
          "type": "uint32"
        }
      ],
      "name": "checkpoints",
      "outputs": [
        {
          "internalType": "uint32",
          "name": "fromBlock",
          "type": "uint32"
        },
        {
          "internalType": "uint256",
          "name": "votes",
          "type": "uint256"
        }
      ],
      "stateMutability": "view",
      "type": "function"
    },
    {
      "inputs": [],
      "name": "decimals",
      "outputs": [
        {
          "internalType": "uint8",
          "name": "",
          "type": "uint8"
        }
      ],
      "stateMutability": "view",
      "type": "function"
    },
    {
      "inputs": [
        {
          "internalType": "address",
          "name": "spender",
          "type": "address"
        },
        {
          "internalType": "uint256",
          "name": "subtractedValue",
          "type": "uint256"
        }
      ],
      "name": "decreaseAllowance",
      "outputs": [
        {
          "internalType": "bool",
          "name": "",
          "type": "bool"
        }
      ],
      "stateMutability": "nonpayable",
      "type": "function"
    },
    {
      "inputs": [
        {
          "internalType": "address",
          "name": "delegatee",
          "type": "address"
        }
      ],
      "name": "delegate",
      "outputs": [],
      "stateMutability": "nonpayable",
      "type": "function"
    },
    {
      "inputs": [
        {
          "internalType": "address",
          "name": "delegatee",
          "type": "address"
        },
        {
          "internalType": "uint256",
          "name": "nonce",
          "type": "uint256"
        },
        {
          "internalType": "uint256",
          "name": "expiry",
          "type": "uint256"
        },
        {
          "internalType": "uint8",
          "name": "v",
          "type": "uint8"
        },
        {
          "internalType": "bytes32",
          "name": "r",
          "type": "bytes32"
        },
        {
          "internalType": "bytes32",
          "name": "s",
          "type": "bytes32"
        }
      ],
      "name": "delegateBySig",
      "outputs": [],
      "stateMutability": "nonpayable",
      "type": "function"
    },
    {
      "inputs": [
        {
          "internalType": "address",
          "name": "delegator",
          "type": "address"
        }
      ],
      "name": "delegates",
      "outputs": [
        {
          "internalType": "address",
          "name": "",
          "type": "address"
        }
      ],
      "stateMutability": "view",
      "type": "function"
    },
    {
      "inputs": [
        {
          "internalType": "address",
          "name": "account",
          "type": "address"
        }
      ],
      "name": "getCurrentVotes",
      "outputs": [
        {
          "internalType": "uint256",
          "name": "",
          "type": "uint256"
        }
      ],
      "stateMutability": "view",
      "type": "function"
    },
    {
      "inputs": [
        {
          "internalType": "address",
          "name": "account",
          "type": "address"
        },
        {
          "internalType": "uint256",
          "name": "blockNumber",
          "type": "uint256"
        }
      ],
      "name": "getPriorVotes",
      "outputs": [
        {
          "internalType": "uint256",
          "name": "",
          "type": "uint256"
        }
      ],
      "stateMutability": "view",
      "type": "function"
    },
    {
      "inputs": [
        {
          "internalType": "address",
          "name": "spender",
          "type": "address"
        },
        {
          "internalType": "uint256",
          "name": "addedValue",
          "type": "uint256"
        }
      ],
      "name": "increaseAllowance",
      "outputs": [
        {
          "internalType": "bool",
          "name": "",
          "type": "bool"
        }
      ],
      "stateMutability": "nonpayable",
      "type": "function"
    },
    {
      "inputs": [
        {
          "internalType": "address",
          "name": "_to",
          "type": "address"
        },
        {
          "internalType": "uint256",
          "name": "_amount",
          "type": "uint256"
        }
      ],
      "name": "mint",
      "outputs": [],
      "stateMutability": "nonpayable",
      "type": "function"
    },
    {
      "inputs": [],
      "name": "name",
      "outputs": [
        {
          "internalType": "string",
          "name": "",
          "type": "string"
        }
      ],
      "stateMutability": "view",
      "type": "function"
    },
    {
      "inputs": [
        {
          "internalType": "address",
          "name": "",
          "type": "address"
        }
      ],
      "name": "nonces",
      "outputs": [
        {
          "internalType": "uint256",
          "name": "",
          "type": "uint256"
        }
      ],
      "stateMutability": "view",
      "type": "function"
    },
    {
      "inputs": [
        {
          "internalType": "address",
          "name": "",
          "type": "address"
        }
      ],
      "name": "numCheckpoints",
      "outputs": [
        {
          "internalType": "uint32",
          "name": "",
          "type": "uint32"
        }
      ],
      "stateMutability": "view",
      "type": "function"
    },
    {
      "inputs": [],
      "name": "owner",
      "outputs": [
        {
          "internalType": "address",
          "name": "",
          "type": "address"
        }
      ],
      "stateMutability": "view",
      "type": "function"
    },
    {
      "inputs": [],
      "name": "renounceOwnership",
      "outputs": [],
      "stateMutability": "nonpayable",
      "type": "function"
    },
    {
      "inputs": [
        {
          "internalType": "address",
          "name": "_to",
          "type": "address"
        },
        {
          "internalType": "uint256",
          "name": "_amount",
          "type": "uint256"
        }
      ],
      "name": "safeCakeTransfer",
      "outputs": [],
      "stateMutability": "nonpayable",
      "type": "function"
    },
    {
      "inputs": [],
      "name": "symbol",
      "outputs": [
        {
          "internalType": "string",
          "name": "",
          "type": "string"
        }
      ],
      "stateMutability": "view",
      "type": "function"
    },
    {
      "inputs": [],
      "name": "totalSupply",
      "outputs": [
        {
          "internalType": "uint256",
          "name": "",
          "type": "uint256"
        }
      ],
      "stateMutability": "view",
      "type": "function"
    },
    {
      "inputs": [
        {
          "internalType": "address",
          "name": "to",
          "type": "address"
        },
        {
          "internalType": "uint256",
          "name": "amount",
          "type": "uint256"
        }
      ],
      "name": "transfer",
      "outputs": [
        {
          "internalType": "bool",
          "name": "",
          "type": "bool"
        }
      ],
      "stateMutability": "nonpayable",
      "type": "function"
    },
    {
      "inputs": [
        {
          "internalType": "address",
          "name": "from",
          "type": "address"
        },
        {
          "internalType": "address",
          "name": "to",
          "type": "address"
        },
        {
          "internalType": "uint256",
          "name": "amount",
          "type": "uint256"
        }
      ],
      "name": "transferFrom",
      "outputs": [
        {
          "internalType": "bool",
          "name": "",
          "type": "bool"
        }
      ],
      "stateMutability": "nonpayable",
      "type": "function"
    },
    {
      "inputs": [
        {
          "internalType": "address",
          "name": "newOwner",
          "type": "address"
        }
      ],
      "name": "transferOwnership",
      "outputs": [],
      "stateMutability": "nonpayable",
      "type": "function"
    }
  ],
  "bytecode": "0x60806040523480156200001157600080fd5b506040516200217b3803806200217b8339810160408190526200003491620001d7565b604080518082018252600a81526921b7b937102a37b5b2b760b11b60208083019182528351808501909452600484526321a7a92760e11b908401528151919291620000829160039162000131565b5080516200009890600490602084019062000131565b505050620000b5620000af620000db60201b60201c565b620000df565b600680546001600160a01b0319166001600160a01b039290921691909117905562000244565b3390565b600580546001600160a01b038381166001600160a01b0319831681179093556040519116919082907f8be0079c531659141344cd1fd0a4f28419497f9722a3daafe3b4186f6b6457e090600090a35050565b8280546200013f9062000207565b90600052602060002090601f016020900481019282620001635760008555620001ae565b82601f106200017e57805160ff1916838001178555620001ae565b82800160010185558215620001ae579182015b82811115620001ae57825182559160200191906001019062000191565b50620001bc929150620001c0565b5090565b5b80821115620001bc5760008155600101620001c1565b600060208284031215620001e9578081fd5b81516001600160a01b038116811462000200578182fd5b9392505050565b6002810460018216806200021c57607f821691505b602082108114156200023e57634e487b7160e01b600052602260045260246000fd5b50919050565b611f2780620002546000396000f3fe608060405234801561001057600080fd5b50600436106101c45760003560e01c80637ecebe00116100f9578063b4b5ea5711610097578063dd62ed3e11610071578063dd62ed3e14610392578063e7a324dc146103a5578063f1127ed8146103ad578063f2fde38b146103ce576101c4565b8063b4b5ea5714610364578063c3cda52014610377578063dce174841461038a576101c4565b80639dc29fac116100d35780639dc29fac14610318578063a2e6ddcc1461032b578063a457c2d71461033e578063a9059cbb14610351576101c4565b80637ecebe00146102f55780638da5cb5b1461030857806395d89b4114610310576101c4565b806340c10f19116101665780636fcfff45116101405780636fcfff45146102a757806370a08231146102c7578063715018a6146102da578063782d6fe1146102e2576101c4565b806340c10f191461025f578063587cde1e146102745780635c19a95c14610294576101c4565b806320606b70116101a257806320606b701461021c57806323b872dd14610224578063313ce56714610237578063395093511461024c576101c4565b806306fdde03146101c9578063095ea7b3146101e757806318160ddd14610207575b600080fd5b6101d16103e1565b6040516101de91906118f6565b60405180910390f35b6101fa6101f5366004611737565b610473565b6040516101de919061187c565b61020f610497565b6040516101de9190611887565b61020f61049d565b6101fa6102323660046116fc565b6104c1565b61023f6104ef565b6040516101de9190611d98565b6101fa61025a366004611737565b6104f4565b61027261026d366004611737565b610520565b005b6102876102823660046116b0565b61059b565b6040516101de919061184f565b6102726102a23660046116b0565b6105bc565b6102ba6102b53660046116b0565b6105c9565b6040516101de9190611d71565b61020f6102d53660046116b0565b6105e1565b6102726105fc565b61020f6102f0366004611737565b610647565b61020f6103033660046116b0565b61086c565b61028761087e565b6101d161088d565b610272610326366004611737565b61089c565b610272610339366004611737565b61090b565b6101fa61034c366004611737565b610aea565b6101fa61035f366004611737565b610b32565b61020f6103723660046116b0565b610b4a565b610272610385366004611760565b610bbf565b610287610d9a565b61020f6103a03660046116ca565b610da9565b61020f610dd4565b6103c06103bb3660046117be565b610df8565b6040516101de929190611d82565b6102726103dc3660046116b0565b610e25565b6060600380546103f090611e51565b80601f016020809104026020016040519081016040528092919081815260200182805461041c90611e51565b80156104695780601f1061043e57610100808354040283529160200191610469565b820191906000526020600020905b81548152906001019060200180831161044c57829003601f168201915b5050505050905090565b60008061047e610e93565b905061048b818585610e97565b60019150505b92915050565b60025490565b7f8cad95687ba82c2ce50e74f7b754645e5117c3a5bec8151c0726d5857980a86681565b6000806104cc610e93565b90506104d9858285610f4b565b6104e4858585610f8f565b506001949350505050565b601290565b6000806104ff610e93565b905061048b8185856105118589610da9565b61051b9190611da6565b610e97565b610528610e93565b6001600160a01b031661053961087e565b6001600160a01b0316146105685760405162461bcd60e51b815260040161055f90611b5f565b60405180910390fd5b61057282826110b3565b6001600160a01b0380831660009081526007602052604081205461059792168361117b565b5050565b6001600160a01b03808216600090815260076020526040902054165b919050565b6105c633826112da565b50565b60096020526000908152604090205463ffffffff1681565b6001600160a01b031660009081526020819052604090205490565b610604610e93565b6001600160a01b031661061561087e565b6001600160a01b03161461063b5760405162461bcd60e51b815260040161055f90611b5f565b6106456000611369565b565b60004382106106685760405162461bcd60e51b815260040161055f90611b94565b6001600160a01b03831660009081526009602052604090205463ffffffff1680610696576000915050610491565b6001600160a01b038416600090815260086020526040812084916106bb600185611e2c565b63ffffffff90811682526020820192909252604001600020541611610724576001600160a01b0384166000908152600860205260408120906106fe600184611e2c565b63ffffffff1663ffffffff16815260200190815260200160002060010154915050610491565b6001600160a01b038416600090815260086020908152604080832083805290915290205463ffffffff1683101561075f576000915050610491565b60008061076d600184611e2c565b90505b8163ffffffff168163ffffffff16111561083557600060026107928484611e2c565b61079c9190611de6565b6107a69083611e2c565b6001600160a01b038816600090815260086020908152604080832063ffffffff8086168552908352928190208151808301909252805490931680825260019093015491810191909152919250871415610809576020015194506104919350505050565b805163ffffffff168711156108205781935061082e565b61082b600183611e2c565b92505b5050610770565b506001600160a01b038516600090815260086020908152604080832063ffffffff9094168352929052206001015491505092915050565b600a6020526000908152604090205481565b6005546001600160a01b031690565b6060600480546103f090611e51565b6108a4610e93565b6001600160a01b03166108b561087e565b6001600160a01b0316146108db5760405162461bcd60e51b815260040161055f90611b5f565b6108e582826113bb565b6001600160a01b038083166000908152600760205260408120546105979216908361117b565b610913610e93565b6001600160a01b031661092461087e565b6001600160a01b03161461094a5760405162461bcd60e51b815260040161055f90611b5f565b6006546040516370a0823160e01b81526000916001600160a01b0316906370a082319061097b90309060040161184f565b60206040518083038186803b15801561099357600080fd5b505afa1580156109a7573d6000803e3d6000fd5b505050506040513d601f19601f820116820180604052508101906109cb919061181c565b905080821115610a5f5760065460405163a9059cbb60e01b81526001600160a01b039091169063a9059cbb90610a079086908590600401611863565b602060405180830381600087803b158015610a2157600080fd5b505af1158015610a35573d6000803e3d6000fd5b505050506040513d601f19601f82011682018060405250810190610a5991906117fc565b50610ae5565b60065460405163a9059cbb60e01b81526001600160a01b039091169063a9059cbb90610a919086908690600401611863565b602060405180830381600087803b158015610aab57600080fd5b505af1158015610abf573d6000803e3d6000fd5b505050506040513d601f19601f82011682018060405250810190610ae391906117fc565b505b505050565b600080610af5610e93565b90506000610b038286610da9565b905083811015610b255760405162461bcd60e51b815260040161055f90611ce7565b6104e48286868403610e97565b600080610b3d610e93565b905061048b818585610f8f565b6001600160a01b03811660009081526009602052604081205463ffffffff1680610b75576000610bb8565b6001600160a01b038316600090815260086020526040812090610b99600184611e2c565b63ffffffff1663ffffffff168152602001908152602001600020600101545b9392505050565b60007f8cad95687ba82c2ce50e74f7b754645e5117c3a5bec8151c0726d5857980a866610bea6103e1565b80519060200120610bf96114ac565b30604051602001610c0d94939291906118b4565b60405160208183030381529060405280519060200120905060007fe48329057bfd03d55e49b547132e39cffd9c1820ad7b9d4c5307691425d15adf888888604051602001610c5e9493929190611890565b60405160208183030381529060405280519060200120905060008282604051602001610c8b929190611834565b604051602081830303815290604052805190602001209050600060018288888860405160008152602001604052604051610cc894939291906118d8565b6020604051602081039080840390855afa158015610cea573d6000803e3d6000fd5b5050604051601f1901519150506001600160a01b038116610d1d5760405162461bcd60e51b815260040161055f90611b19565b6001600160a01b0381166000908152600a60205260408120805491610d4183611e8c565b919050558914610d635760405162461bcd60e51b815260040161055f90611bdb565b87421115610d835760405162461bcd60e51b815260040161055f90611a56565b610d8d818b6112da565b505050505b505050505050565b6006546001600160a01b031681565b6001600160a01b03918216600090815260016020908152604080832093909416825291909152205490565b7fe48329057bfd03d55e49b547132e39cffd9c1820ad7b9d4c5307691425d15adf81565b60086020908152600092835260408084209091529082529020805460019091015463ffffffff9091169082565b610e2d610e93565b6001600160a01b0316610e3e61087e565b6001600160a01b031614610e645760405162461bcd60e51b815260040161055f90611b5f565b6001600160a01b038116610e8a5760405162461bcd60e51b815260040161055f906119ce565b6105c681611369565b3390565b6001600160a01b038316610ebd5760405162461bcd60e51b815260040161055f90611ca3565b6001600160a01b038216610ee35760405162461bcd60e51b815260040161055f90611a14565b6001600160a01b0380841660008181526001602090815260408083209487168084529490915290819020849055517f8c5be1e5ebec7d5bd14f71427d1e84f3dd0314c0f7b2291e5b200ac8c7c3b92590610f3e908590611887565b60405180910390a3505050565b6000610f578484610da9565b90506000198114610ae35781811015610f825760405162461bcd60e51b815260040161055f90611a9c565b610ae38484848403610e97565b6001600160a01b038316610fb55760405162461bcd60e51b815260040161055f90611c5e565b6001600160a01b038216610fdb5760405162461bcd60e51b815260040161055f90611949565b610fe6838383610ae5565b6001600160a01b0383166000908152602081905260409020548181101561101f5760405162461bcd60e51b815260040161055f90611ad3565b6001600160a01b03808516600090815260208190526040808220858503905591851681529081208054849290611056908490611da6565b92505081905550826001600160a01b0316846001600160a01b03167fddf252ad1be2c89b69c2b068fc378daa952ba7f163c4a11628f55a4df523b3ef846040516110a09190611887565b60405180910390a3610ae3848484610ae5565b6001600160a01b0382166110d95760405162461bcd60e51b815260040161055f90611d2c565b6110e560008383610ae5565b80600260008282546110f79190611da6565b90915550506001600160a01b03821660009081526020819052604081208054839290611124908490611da6565b90915550506040516001600160a01b038316906000907fddf252ad1be2c89b69c2b068fc378daa952ba7f163c4a11628f55a4df523b3ef90611167908590611887565b60405180910390a361059760008383610ae5565b816001600160a01b0316836001600160a01b03161415801561119d5750600081115b15610ae5576001600160a01b03831615611240576001600160a01b03831660009081526009602052604081205463ffffffff1690816111dd576000611220565b6001600160a01b038516600090815260086020526040812090611201600185611e2c565b63ffffffff1663ffffffff168152602001908152602001600020600101545b9050600061122e82856114b0565b905061123c868484846114bc565b5050505b6001600160a01b03821615610ae5576001600160a01b03821660009081526009602052604081205463ffffffff16908161127b5760006112be565b6001600160a01b03841660009081526008602052604081209061129f600185611e2c565b63ffffffff1663ffffffff168152602001908152602001600020600101545b905060006112cc828561165d565b9050610d92858484846114bc565b6001600160a01b0380831660009081526007602052604081205490911690611301846105e1565b6001600160a01b0385811660008181526007602052604080822080546001600160a01b031916898616908117909155905194955093928616927f3134e8a2e6d97e929a7e54011ea5485d7d196dd5f0ba4d4ef95803e8e3fc257f9190a4610ae382848361117b565b600580546001600160a01b038381166001600160a01b0319831681179093556040519116919082907f8be0079c531659141344cd1fd0a4f28419497f9722a3daafe3b4186f6b6457e090600090a35050565b6001600160a01b0382166113e15760405162461bcd60e51b815260040161055f90611c1d565b6113ed82600083610ae5565b6001600160a01b038216600090815260208190526040902054818110156114265760405162461bcd60e51b815260040161055f9061198c565b6001600160a01b0383166000908152602081905260408120838303905560028054849290611455908490611e15565b90915550506040516000906001600160a01b038516907fddf252ad1be2c89b69c2b068fc378daa952ba7f163c4a11628f55a4df523b3ef90611498908690611887565b60405180910390a3610ae583600084610ae5565b4690565b6000610bb88284611e15565b60006114e043604051806060016040528060348152602001611ebe60349139611669565b905060008463ffffffff1611801561153a57506001600160a01b038516600090815260086020526040812063ffffffff83169161151e600188611e2c565b63ffffffff908116825260208201929092526040016000205416145b15611583576001600160a01b03851660009081526008602052604081208391611564600188611e2c565b63ffffffff168152602081019190915260400160002060010155611613565b60408051808201825263ffffffff838116825260208083018681526001600160a01b038a166000908152600883528581208a851682529092529390209151825463ffffffff1916911617815590516001918201556115e2908590611dbe565b6001600160a01b0386166000908152600960205260409020805463ffffffff191663ffffffff929092169190911790555b846001600160a01b03167fdec2bacdd2f05b59de34da9b523dff8be42e5e38e818c82fdb0bae774387a724848460405161164e929190611d63565b60405180910390a25050505050565b6000610bb88284611da6565b60008164010000000084106116915760405162461bcd60e51b815260040161055f91906118f6565b509192915050565b80356001600160a01b03811681146105b757600080fd5b6000602082840312156116c1578081fd5b610bb882611699565b600080604083850312156116dc578081fd5b6116e583611699565b91506116f360208401611699565b90509250929050565b600080600060608486031215611710578081fd5b61171984611699565b925061172760208501611699565b9150604084013590509250925092565b60008060408385031215611749578182fd5b61175283611699565b946020939093013593505050565b60008060008060008060c08789031215611778578182fd5b61178187611699565b95506020870135945060408701359350606087013560ff811681146117a4578283fd5b9598949750929560808101359460a0909101359350915050565b600080604083850312156117d0578182fd5b6117d983611699565b9150602083013563ffffffff811681146117f1578182fd5b809150509250929050565b60006020828403121561180d578081fd5b81518015158114610bb8578182fd5b60006020828403121561182d578081fd5b5051919050565b61190160f01b81526002810192909252602282015260420190565b6001600160a01b0391909116815260200190565b6001600160a01b03929092168252602082015260400190565b901515815260200190565b90815260200190565b9384526001600160a01b039290921660208401526040830152606082015260800190565b938452602084019290925260408301526001600160a01b0316606082015260800190565b93845260ff9290921660208401526040830152606082015260800190565b6000602080835283518082850152825b8181101561192257858101830151858201604001528201611906565b818111156119335783604083870101525b50601f01601f1916929092016040019392505050565b60208082526023908201527f45524332303a207472616e7366657220746f20746865207a65726f206164647260408201526265737360e81b606082015260800190565b60208082526022908201527f45524332303a206275726e20616d6f756e7420657863656564732062616c616e604082015261636560f01b606082015260800190565b60208082526026908201527f4f776e61626c653a206e6577206f776e657220697320746865207a65726f206160408201526564647265737360d01b606082015260800190565b60208082526022908201527f45524332303a20617070726f766520746f20746865207a65726f206164647265604082015261737360f01b606082015260800190565b60208082526026908201527f43414b453a3a64656c656761746542795369673a207369676e617475726520656040820152651e1c1a5c995960d21b606082015260800190565b6020808252601d908201527f45524332303a20696e73756666696369656e7420616c6c6f77616e6365000000604082015260600190565b60208082526026908201527f45524332303a207472616e7366657220616d6f756e7420657863656564732062604082015265616c616e636560d01b606082015260800190565b60208082526026908201527f43414b453a3a64656c656761746542795369673a20696e76616c6964207369676040820152656e617475726560d01b606082015260800190565b6020808252818101527f4f776e61626c653a2063616c6c6572206973206e6f7420746865206f776e6572604082015260600190565b60208082526027908201527f43414b453a3a6765745072696f72566f7465733a206e6f742079657420646574604082015266195c9b5a5b995960ca1b606082015260800190565b60208082526022908201527f43414b453a3a64656c656761746542795369673a20696e76616c6964206e6f6e604082015261636560f01b606082015260800190565b60208082526021908201527f45524332303a206275726e2066726f6d20746865207a65726f206164647265736040820152607360f81b606082015260800190565b60208082526025908201527f45524332303a207472616e736665722066726f6d20746865207a65726f206164604082015264647265737360d81b606082015260800190565b60208082526024908201527f45524332303a20617070726f76652066726f6d20746865207a65726f206164646040820152637265737360e01b606082015260800190565b60208082526025908201527f45524332303a2064656372656173656420616c6c6f77616e63652062656c6f77604082015264207a65726f60d81b606082015260800190565b6020808252601f908201527f45524332303a206d696e7420746f20746865207a65726f206164647265737300604082015260600190565b918252602082015260400190565b63ffffffff91909116815260200190565b63ffffffff929092168252602082015260400190565b60ff91909116815260200190565b60008219821115611db957611db9611ea7565b500190565b600063ffffffff808316818516808303821115611ddd57611ddd611ea7565b01949350505050565b600063ffffffff80841680611e0957634e487b7160e01b83526012600452602483fd5b92169190910492915050565b600082821015611e2757611e27611ea7565b500390565b600063ffffffff83811690831681811015611e4957611e49611ea7565b039392505050565b600281046001821680611e6557607f821691505b60208210811415611e8657634e487b7160e01b600052602260045260246000fd5b50919050565b6000600019821415611ea057611ea0611ea7565b5060010190565b634e487b7160e01b600052601160045260246000fdfe43414b453a3a5f7772697465436865636b706f696e743a20626c6f636b206e756d62657220657863656564732033322062697473a264697066735822122047fcdec68e5489ab2d09617ff7d80d3be91a715627894931ad09c3079d82daa664736f6c63430008000033",
  "linkReferences": {},
  "deployedLinkReferences": {}
}