{
  "_format": "hh-sol-artifact-1",
  "contractName": "NeondexFactory",
  "sourceName": "contracts/exchange-protocol/dexfactory.sol",
  "abi": [
    {
      "inputs": [
        {
          "internalType": "address",
          "name": "_feeToSetter",
          "type": "address"
        }
      ],
      "stateMutability": "nonpayable",
      "type": "constructor"
    },
    {
      "anonymous": false,
      "inputs": [
        {
          "indexed": true,
          "internalType": "address",
          "name": "token0",
          "type": "address"
        },
        {
          "indexed": true,
          "internalType": "address",
          "name": "token1",
          "type": "address"
        },
        {
          "indexed": false,
          "internalType": "address",
          "name": "pair",
          "type": "address"
        },
        {
          "indexed": false,
          "internalType": "uint256",
          "name": "",
          "type": "uint256"
        }
      ],
      "name": "PairCreated",
      "type": "event"
    },
    {
      "inputs": [],
      "name": "INIT_CODE_PAIR_HASH",
      "outputs": [
        {
          "internalType": "bytes32",
          "name": "",
          "type": "bytes32"
        }
      ],
      "stateMutability": "view",
      "type": "function"
    },
    {
      "inputs": [
        {
          "internalType": "uint256",
          "name": "",
          "type": "uint256"
        }
      ],
      "name": "allPairs",
      "outputs": [
        {
          "internalType": "address",
          "name": "",
          "type": "address"
        }
      ],
      "stateMutability": "view",
      "type": "function"
    },
    {
      "inputs": [],
      "name": "allPairsLength",
      "outputs": [
        {
          "internalType": "uint256",
          "name": "",
          "type": "uint256"
        }
      ],
      "stateMutability": "view",
      "type": "function"
    },
    {
      "inputs": [
        {
          "internalType": "address",
          "name": "tokenA",
          "type": "address"
        },
        {
          "internalType": "address",
          "name": "tokenB",
          "type": "address"
        }
      ],
      "name": "createPair",
      "outputs": [
        {
          "internalType": "address",
          "name": "pair",
          "type": "address"
        }
      ],
      "stateMutability": "nonpayable",
      "type": "function"
    },
    {
      "inputs": [],
      "name": "feeTo",
      "outputs": [
        {
          "internalType": "address",
          "name": "",
          "type": "address"
        }
      ],
      "stateMutability": "view",
      "type": "function"
    },
    {
      "inputs": [],
      "name": "feeToSetter",
      "outputs": [
        {
          "internalType": "address",
          "name": "",
          "type": "address"
        }
      ],
      "stateMutability": "view",
      "type": "function"
    },
    {
      "inputs": [
        {
          "internalType": "address",
          "name": "",
          "type": "address"
        },
        {
          "internalType": "address",
          "name": "",
          "type": "address"
        }
      ],
      "name": "getPair",
      "outputs": [
        {
          "internalType": "address",
          "name": "",
          "type": "address"
        }
      ],
      "stateMutability": "view",
      "type": "function"
    },
    {
      "inputs": [
        {
          "internalType": "address",
          "name": "_feeTo",
          "type": "address"
        }
      ],
      "name": "setFeeTo",
      "outputs": [],
      "stateMutability": "nonpayable",
      "type": "function"
    },
    {
      "inputs": [
        {
          "internalType": "address",
          "name": "_feeToSetter",
          "type": "address"
        }
      ],
      "name": "setFeeToSetter",
      "outputs": [],
      "stateMutability": "nonpayable",
      "type": "function"
    }
  ],
  "bytecode": "0x608060405234801561001057600080fd5b50604051612b32380380612b3283398101604081905261002f91610054565b600180546001600160a01b0319166001600160a01b0392909216919091179055610082565b600060208284031215610065578081fd5b81516001600160a01b038116811461007b578182fd5b9392505050565b612aa1806100916000396000f3fe608060405234801561001057600080fd5b50600436106100935760003560e01c80635855a25a116100665780635855a25a14610100578063a2e74af614610108578063c9c653961461011d578063e6a4390514610130578063f46901ed1461016457600080fd5b8063017e7e5814610098578063094b7415146100c85780631e3dd18b146100db578063574f2ba3146100ee575b600080fd5b6000546100ab906001600160a01b031681565b6040516001600160a01b0390911681526020015b60405180910390f35b6001546100ab906001600160a01b031681565b6100ab6100e9366004610643565b610177565b6003545b6040519081526020016100bf565b6100f26101a1565b61011b6101163660046105f0565b6101eb565b005b6100ab61012b366004610611565b610261565b6100ab61013e366004610611565b60026020908152600092835260408084209091529082529020546001600160a01b031681565b61011b6101723660046105f0565b610556565b6003818154811061018757600080fd5b6000918252602090912001546001600160a01b0316905081565b6040516101b0602082016105c7565b601f1982820381018352601f9091011660408190526101d2919060200161065b565b6040516020818303038152906040528051906020012081565b6001546001600160a01b0316331461023f5760405162461bcd60e51b81526020600482015260126024820152712732b7b73232bc1d102327a92124a22222a760711b60448201526064015b60405180910390fd5b600180546001600160a01b0319166001600160a01b0392909216919091179055565b6000816001600160a01b0316836001600160a01b031614156102c55760405162461bcd60e51b815260206004820152601c60248201527f4e656f6e6465783a204944454e544943414c5f414444524553534553000000006044820152606401610236565b600080836001600160a01b0316856001600160a01b0316106102e85783856102eb565b84845b90925090506001600160a01b03821661033e5760405162461bcd60e51b81526020600482015260156024820152744e656f6e6465783a205a45524f5f4144445245535360581b6044820152606401610236565b6001600160a01b038281166000908152600260209081526040808320858516845290915290205416156103aa5760405162461bcd60e51b81526020600482015260146024820152734e656f6e6465783a20504149525f45584953545360601b6044820152606401610236565b6000604051806020016103bc906105c7565b601f1982820381018352601f9091011660408190526bffffffffffffffffffffffff19606086811b8216602084015285901b166034820152909150600090604801604051602081830303815290604052805190602001209050808251602084016000f560405163485cc95560e01b81526001600160a01b03868116600483015285811660248301529196509086169063485cc95590604401600060405180830381600087803b15801561046e57600080fd5b505af1158015610482573d6000803e3d6000fd5b505050506001600160a01b0384811660008181526002602081815260408084208987168086529083528185208054978d166001600160a01b031998891681179091559383528185208686528352818520805488168517905560038054600181018255958190527fc2575a0e9e593c00f959f8c92f12db2869c3395a3b0502d05e2516446f71f85b9095018054909716841790965592548351928352908201527f0d3648bd0f6ba80134a33ba9275ac585d9d315f0ad8355cddefde31afa28d0e9910160405180910390a35050505092915050565b6001546001600160a01b031633146105a55760405162461bcd60e51b81526020600482015260126024820152712732b7b73232bc1d102327a92124a22222a760711b6044820152606401610236565b600080546001600160a01b0319166001600160a01b0392909216919091179055565b6123d78061069583390190565b80356001600160a01b03811681146105eb57600080fd5b919050565b600060208284031215610601578081fd5b61060a826105d4565b9392505050565b60008060408385031215610623578081fd5b61062c836105d4565b915061063a602084016105d4565b90509250929050565b600060208284031215610654578081fd5b5035919050565b60008251815b8181101561067b5760208186018101518583015201610661565b818111156106895782828501525b50919091019291505056fe60806040526001600c5534801561001557600080fd5b50604080518082018252600c81526b02732b7b73232bc39bbb0b8160a51b6020918201528151808301835260018152603160f81b9082015281517f8b73c3c69bb8fe3d512ecc4cf759cc79239f7b179b0ffacaa9a75d522b39400f818301527fcd982f0ed812e4698a343dfb2f00f053712c9288d874e49f5116732bb69f1dff818401527fc89efdaa54c0f20c7adf612882df0950f5a951637e0307cdcb4c672f298b8bc660608201524660808201523060a0808301919091528351808303909101815260c09091019092528151910120600355600580546001600160a01b031916331790556122cd8061010a6000396000f3fe608060405234801561001057600080fd5b50600436106101a95760003560e01c80636a627842116100f9578063ba9a7a5611610097578063d21220a711610071578063d21220a71461040e578063d505accf14610421578063dd62ed3e14610434578063fff6cae91461045f57600080fd5b8063ba9a7a56146103df578063bc25cf77146103e8578063c45a0155146103fb57600080fd5b80637ecebe00116100d35780637ecebe001461035b57806389afcb441461037b57806395d89b41146103a3578063a9059cbb146103cc57600080fd5b80636a6278421461031f57806370a08231146103325780637464fc3d1461035257600080fd5b806323b872dd116101665780633644e515116101405780633644e515146102f1578063485cc955146102fa5780635909c0d51461030d5780635a3d54931461031657600080fd5b806323b872dd1461029d57806330adf81f146102b0578063313ce567146102d757600080fd5b8063022c0d9f146101ae57806306fdde03146101c35780630902f1ac14610204578063095ea7b3146102385780630dfe16811461025b57806318160ddd14610286575b600080fd5b6101c16101bc366004611fc3565b610467565b005b6101ee6040518060400160405280600c81526020016b02732b7b73232bc39bbb0b8160a51b81525081565b6040516101fb91906120bc565b60405180910390f35b61020c61097a565b604080516001600160701b03948516815293909216602084015263ffffffff16908201526060016101fb565b61024b610246366004611f60565b6109a4565b60405190151581526020016101fb565b60065461026e906001600160a01b031681565b6040516001600160a01b0390911681526020016101fb565b61028f60005481565b6040519081526020016101fb565b61024b6102ab366004611eab565b6109bb565b61028f7f6e71edae12b1b97f4d1f60370fef10105fa2faae0126114a169c64845d6126c981565b6102df601281565b60405160ff90911681526020016101fb565b61028f60035481565b6101c1610308366004611e73565b610a4f565b61028f60095481565b61028f600a5481565b61028f61032d366004611e3b565b610acc565b61028f610340366004611e3b565b60016020526000908152604090205481565b61028f600b5481565b61028f610369366004611e3b565b60046020526000908152604090205481565b61038e610389366004611e3b565b610dad565b604080519283526020830191909152016101fb565b6101ee6040518060400160405280600a81526020016904e656f6e6465782d4c560b41b81525081565b61024b6103da366004611f60565b61114d565b61028f6103e881565b6101c16103f6366004611e3b565b61115a565b60055461026e906001600160a01b031681565b60075461026e906001600160a01b031681565b6101c161042f366004611eeb565b61127d565b61028f610442366004611e73565b600260209081526000928352604080842090915290825290205481565b6101c161148f565b600c546001146104925760405162461bcd60e51b8152600401610489906120ef565b60405180910390fd5b6000600c55841515806104a55750600084115b6104fd5760405162461bcd60e51b815260206004820152602360248201527f4e656f6e6465783a20494e53554646494349454e545f4f55545055545f414d4f60448201526215539560ea1b6064820152608401610489565b60008061050861097a565b5091509150816001600160701b03168710801561052d5750806001600160701b031686105b6105795760405162461bcd60e51b815260206004820152601f60248201527f4e656f6e6465783a20494e53554646494349454e545f4c4951554944495459006044820152606401610489565b60065460075460009182916001600160a01b039182169190811690891682148015906105b75750806001600160a01b0316896001600160a01b031614155b6105f95760405162461bcd60e51b81526020600482015260136024820152724e656f6e6465783a20494e56414c49445f544f60681b6044820152606401610489565b8a1561060a5761060a828a8d6115d1565b891561061b5761061b818a8c6115d1565b861561068857604051636cb0e27760e11b81526001600160a01b038a169063d961c4ee906106559033908f908f908e908e90600401612070565b600060405180830381600087803b15801561066f57600080fd5b505af1158015610683573d6000803e3d6000fd5b505050505b6040516370a0823160e01b81523060048201526001600160a01b038316906370a082319060240160206040518083038186803b1580156106c757600080fd5b505afa1580156106db573d6000803e3d6000fd5b505050506040513d601f19601f820116820180604052508101906106ff9190611fab565b6040516370a0823160e01b81523060048201529094506001600160a01b038216906370a082319060240160206040518083038186803b15801561074157600080fd5b505afa158015610755573d6000803e3d6000fd5b505050506040513d601f19601f820116820180604052508101906107799190611fab565b92505050600089856001600160701b031661079491906121b8565b83116107a15760006107be565b6107b48a6001600160701b0387166121b8565b6107be90846121b8565b905060006107d58a6001600160701b0387166121b8565b83116107e25760006107ff565b6107f58a6001600160701b0387166121b8565b6107ff90846121b8565b905060008211806108105750600081115b6108675760405162461bcd60e51b815260206004820152602260248201527f4e656f6e6465783a20494e53554646494349454e545f494e5055545f414d4f55604482015261139560f21b6064820152608401610489565b600061088961087784600361171c565b610883876103e861171c565b90611783565b9050600061089b61087784600361171c565b90506108c0620f42406108ba6001600160701b038b8116908b1661171c565b9061171c565b6108ca838361171c565b10156109055760405162461bcd60e51b815260206004820152600a6024820152694e656f6e6465783a204b60b01b6044820152606401610489565b5050610913848488886117d9565b60408051838152602081018390529081018c9052606081018b90526001600160a01b038a169033907fd78ad95fa46c994b6551d0da85fc275fe613ce37657fb8d5e3d130840159d8229060800160405180910390a350506001600c55505050505050505050565b6008546001600160701b0380821692600160701b830490911691600160e01b900463ffffffff1690565b60006109b13384846119c3565b5060015b92915050565b6001600160a01b038316600090815260026020908152604080832033845290915281205460001914610a3a576001600160a01b0384166000908152600260209081526040808320338452909152902054610a159083611783565b6001600160a01b03851660009081526002602090815260408083203384529091529020555b610a45848484611a25565b5060019392505050565b6005546001600160a01b03163314610a9e5760405162461bcd60e51b81526020600482015260126024820152712732b7b73232bc1d102327a92124a22222a760711b6044820152606401610489565b600680546001600160a01b039384166001600160a01b03199182161790915560078054929093169116179055565b6000600c54600114610af05760405162461bcd60e51b8152600401610489906120ef565b6000600c81905580610b0061097a565b506006546040516370a0823160e01b81523060048201529294509092506000916001600160a01b03909116906370a082319060240160206040518083038186803b158015610b4d57600080fd5b505afa158015610b61573d6000803e3d6000fd5b505050506040513d601f19601f82011682018060405250810190610b859190611fab565b6007546040516370a0823160e01b81523060048201529192506000916001600160a01b03909116906370a082319060240160206040518083038186803b158015610bce57600080fd5b505afa158015610be2573d6000803e3d6000fd5b505050506040513d601f19601f82011682018060405250810190610c069190611fab565b90506000610c1d836001600160701b038716611783565b90506000610c34836001600160701b038716611783565b90506000610c428787611acb565b60005490915080610c7957610c656103e8610883610c60878761171c565b611c17565b9850610c7460006103e8611c87565b610cc0565b610cbd6001600160701b038916610c90868461171c565b610c9a9190612156565b6001600160701b038916610cae868561171c565b610cb89190612156565b611d16565b98505b60008911610d1f5760405162461bcd60e51b815260206004820152602660248201527f4e656f6e6465783a20494e53554646494349454e545f4c49515549444954595f60448201526513525395115160d21b6064820152608401610489565b610d298a8a611c87565b610d3586868a8a6117d9565b8115610d5f57600854610d5b906001600160701b0380821691600160701b90041661171c565b600b555b604080518581526020810185905233917f4c209b5fc8ad50758f13e2e1088ba56a560dff690a1c6fef26394f4c03821c4f910160405180910390a250506001600c5550949695505050505050565b600080600c54600114610dd25760405162461bcd60e51b8152600401610489906120ef565b6000600c81905580610de261097a565b506006546007546040516370a0823160e01b81523060048201529395509193506001600160a01b039081169291169060009083906370a082319060240160206040518083038186803b158015610e3757600080fd5b505afa158015610e4b573d6000803e3d6000fd5b505050506040513d601f19601f82011682018060405250810190610e6f9190611fab565b6040516370a0823160e01b81523060048201529091506000906001600160a01b038416906370a082319060240160206040518083038186803b158015610eb457600080fd5b505afa158015610ec8573d6000803e3d6000fd5b505050506040513d601f19601f82011682018060405250810190610eec9190611fab565b30600090815260016020526040812054919250610f098888611acb565b60005490915080610f1a848761171c565b610f249190612156565b9a5080610f31848661171c565b610f3b9190612156565b995060008b118015610f4d575060008a115b610fa85760405162461bcd60e51b815260206004820152602660248201527f4e656f6e6465783a20494e53554646494349454e545f4c49515549444954595f60448201526510955493915160d21b6064820152608401610489565b610fb23084611d2e565b610fbd878d8d6115d1565b610fc8868d8c6115d1565b6040516370a0823160e01b81523060048201526001600160a01b038816906370a082319060240160206040518083038186803b15801561100757600080fd5b505afa15801561101b573d6000803e3d6000fd5b505050506040513d601f19601f8201168201806040525081019061103f9190611fab565b6040516370a0823160e01b81523060048201529095506001600160a01b038716906370a082319060240160206040518083038186803b15801561108157600080fd5b505afa158015611095573d6000803e3d6000fd5b505050506040513d601f19601f820116820180604052508101906110b99190611fab565b93506110c785858b8b6117d9565b81156110f1576008546110ed906001600160701b0380821691600160701b90041661171c565b600b555b604080518c8152602081018c90526001600160a01b038e169133917fdccd412f0b1252819cb1fd330b93224ca42612892bb3f4f789976e6d81936496910160405180910390a35050505050505050506001600c81905550915091565b60006109b1338484611a25565b600c5460011461117c5760405162461bcd60e51b8152600401610489906120ef565b6000600c556006546007546008546040516370a0823160e01b81523060048201526001600160a01b0393841693909216916112269184918691611221916001600160701b039091169084906370a08231906024015b60206040518083038186803b1580156111e957600080fd5b505afa1580156111fd573d6000803e3d6000fd5b505050506040513d601f19601f820116820180604052508101906108839190611fab565b6115d1565b6008546040516370a0823160e01b8152306004820152611273918391869161122191600160701b9091046001600160701b0316906001600160a01b038516906370a08231906024016111d1565b50506001600c5550565b428410156112c05760405162461bcd60e51b815260206004820152601060248201526f13995bdb99195e0e881156141254915160821b6044820152606401610489565b6003546001600160a01b038816600090815260046020526040812080549192917f6e71edae12b1b97f4d1f60370fef10105fa2faae0126114a169c64845d6126c9918b918b918b91908761131383612224565b909155506040805160208101969096526001600160a01b0394851690860152929091166060840152608083015260a082015260c0810187905260e0016040516020818303038152906040528051906020012060405160200161138c92919061190160f01b81526002810192909252602282015260420190565b60408051601f198184030181528282528051602091820120600080855291840180845281905260ff88169284019290925260608301869052608083018590529092509060019060a0016020604051602081039080840390855afa1580156113f7573d6000803e3d6000fd5b5050604051601f1901519150506001600160a01b0381161580159061142d5750886001600160a01b0316816001600160a01b0316145b6114795760405162461bcd60e51b815260206004820152601a60248201527f4e656f6e6465783a20494e56414c49445f5349474e41545552450000000000006044820152606401610489565b6114848989896119c3565b505050505050505050565b600c546001146114b15760405162461bcd60e51b8152600401610489906120ef565b6000600c556006546040516370a0823160e01b81523060048201526115ca916001600160a01b0316906370a082319060240160206040518083038186803b1580156114fb57600080fd5b505afa15801561150f573d6000803e3d6000fd5b505050506040513d601f19601f820116820180604052508101906115339190611fab565b6007546040516370a0823160e01b81523060048201526001600160a01b03909116906370a082319060240160206040518083038186803b15801561157657600080fd5b505afa15801561158a573d6000803e3d6000fd5b505050506040513d601f19601f820116820180604052508101906115ae9190611fab565b6008546001600160701b0380821691600160701b9004166117d9565b6001600c55565b604080518082018252601981527f7472616e7366657228616464726573732c75696e74323536290000000000000060209182015281516001600160a01b0385811660248301526044808301869052845180840390910181526064909201845291810180516001600160e01b031663a9059cbb60e01b1790529151600092839287169161165d9190612054565b6000604051808303816000865af19150503d806000811461169a576040519150601f19603f3d011682016040523d82523d6000602084013e61169f565b606091505b50915091508180156116c95750805115806116c95750808060200190518101906116c99190611f8b565b6117155760405162461bcd60e51b815260206004820152601f60248201527f4e656f6e646578466163746f72793a205452414e534645525f4641494c4544006044820152606401610489565b5050505050565b6000811580611740575082826117328183612199565b925061173e9083612156565b145b6109b55760405162461bcd60e51b815260206004820152601460248201527364732d6d6174682d6d756c2d6f766572666c6f7760601b6044820152606401610489565b60008261179083826121b8565b91508111156109b55760405162461bcd60e51b815260206004820152601560248201527464732d6d6174682d7375622d756e646572666c6f7760581b6044820152606401610489565b6001600160701b0384118015906117f757506001600160701b038311155b6118375760405162461bcd60e51b81526020600482015260116024820152704e656f6e6465783a204f564552464c4f5760781b6044820152606401610489565b60006118486401000000004261223f565b60085490915060009061186890600160e01b900463ffffffff16836121cf565b905060008163ffffffff1611801561188857506001600160701b03841615155b801561189c57506001600160701b03831615155b1561192b578063ffffffff166118c4856118b586611db8565b6001600160e01b031690611dd1565b6001600160e01b03166118d79190612199565b600960008282546118e89190612118565b909155505063ffffffff8116611901846118b587611db8565b6001600160e01b03166119149190612199565b600a60008282546119259190612118565b90915550505b6008805463ffffffff8416600160e01b026001600160e01b036001600160701b03898116600160701b9081026001600160e01b03199095168c83161794909417918216831794859055604080519382169282169290921783529290930490911660208201527f1c411e9a96e071241c2f21f7726b17ae89e3cab4c78be50e062b03a9fffbbad1910160405180910390a1505050505050565b6001600160a01b0383811660008181526002602090815260408083209487168084529482529182902085905590518481527f8c5be1e5ebec7d5bd14f71427d1e84f3dd0314c0f7b2291e5b200ac8c7c3b92591015b60405180910390a3505050565b6001600160a01b038316600090815260016020526040902054611a489082611783565b6001600160a01b038085166000908152600160205260408082209390935590841681522054611a779082611de6565b6001600160a01b0380841660008181526001602052604090819020939093559151908516907fddf252ad1be2c89b69c2b068fc378daa952ba7f163c4a11628f55a4df523b3ef90611a189085815260200190565b600080600560009054906101000a90046001600160a01b03166001600160a01b031663017e7e586040518163ffffffff1660e01b815260040160206040518083038186803b158015611b1c57600080fd5b505afa158015611b30573d6000803e3d6000fd5b505050506040513d601f19601f82011682018060405250810190611b549190611e57565b600b546001600160a01b038216158015945091925090611c03578015611bfe576000611b8f610c606001600160701b0388811690881661171c565b90506000611b9c83611c17565b905080821115611bfb576000611bbe611bb58484611783565b6000549061171c565b90506000611bd783611bd186600561171c565b90611de6565b90506000611be58284612156565b90508015611bf757611bf78782611c87565b5050505b50505b611c0f565b8015611c0f576000600b555b505092915050565b60006003821115611c785750806000611c31600283612156565b611c3c906001612118565b90505b81811015611c7257905080600281611c578186612156565b611c619190612118565b611c6b9190612156565b9050611c3f565b50919050565b8115611c82575060015b919050565b600054611c949082611de6565b60009081556001600160a01b038316815260016020526040902054611cb99082611de6565b6001600160a01b0383166000818152600160205260408082209390935591519091907fddf252ad1be2c89b69c2b068fc378daa952ba7f163c4a11628f55a4df523b3ef90611d0a9085815260200190565b60405180910390a35050565b6000818310611d255781611d27565b825b9392505050565b6001600160a01b038216600090815260016020526040902054611d519082611783565b6001600160a01b03831660009081526001602052604081209190915554611d789082611783565b60009081556040518281526001600160a01b038416907fddf252ad1be2c89b69c2b068fc378daa952ba7f163c4a11628f55a4df523b3ef90602001611d0a565b60006109b5600160701b6001600160701b03841661216a565b6000611d276001600160701b03831684612130565b600082611df38382612118565b91508110156109b55760405162461bcd60e51b815260206004820152601460248201527364732d6d6174682d6164642d6f766572666c6f7760601b6044820152606401610489565b600060208284031215611e4c578081fd5b8135611d278161227f565b600060208284031215611e68578081fd5b8151611d278161227f565b60008060408385031215611e85578081fd5b8235611e908161227f565b91506020830135611ea08161227f565b809150509250929050565b600080600060608486031215611ebf578081fd5b8335611eca8161227f565b92506020840135611eda8161227f565b929592945050506040919091013590565b600080600080600080600060e0888a031215611f05578283fd5b8735611f108161227f565b96506020880135611f208161227f565b95506040880135945060608801359350608088013560ff81168114611f43578384fd5b9699959850939692959460a0840135945060c09093013592915050565b60008060408385031215611f72578182fd5b8235611f7d8161227f565b946020939093013593505050565b600060208284031215611f9c578081fd5b81518015158114611d27578182fd5b600060208284031215611fbc578081fd5b5051919050565b600080600080600060808688031215611fda578081fd5b85359450602086013593506040860135611ff38161227f565b9250606086013567ffffffffffffffff8082111561200f578283fd5b818801915088601f830112612022578283fd5b813581811115612030578384fd5b896020828501011115612041578384fd5b9699959850939650602001949392505050565b600082516120668184602087016121f4565b9190910192915050565b60018060a01b038616815284602082015283604082015260806060820152816080820152818360a0830137600081830160a090810191909152601f909201601f19160101949350505050565b60208152600082518060208401526120db8160408501602087016121f4565b601f01601f19169190910160400192915050565b6020808252600f908201526e13995bdb99195e0e881313d0d2d151608a1b604082015260600190565b6000821982111561212b5761212b612253565b500190565b60006001600160e01b038381168061214a5761214a612269565b92169190910492915050565b60008261216557612165612269565b500490565b60006001600160e01b038281168482168115158284048211161561219057612190612253565b02949350505050565b60008160001904831182151516156121b3576121b3612253565b500290565b6000828210156121ca576121ca612253565b500390565b600063ffffffff838116908316818110156121ec576121ec612253565b039392505050565b60005b8381101561220f5781810151838201526020016121f7565b8381111561221e576000848401525b50505050565b600060001982141561223857612238612253565b5060010190565b60008261224e5761224e612269565b500690565b634e487b7160e01b600052601160045260246000fd5b634e487b7160e01b600052601260045260246000fd5b6001600160a01b038116811461229457600080fd5b5056fea2646970667358221220f7e9d17671fe5a1c3741753225db32358dfeddf1a80b5c9ea79f112d8a78655264736f6c63430008040033a264697066735822122082caad5ec726c303ef893e08db91dca27c6b396c92483eebf9fa437b8023ac6364736f6c63430008040033",
  "linkReferences": {},
  "deployedLinkReferences": {}
}