{
  "_format": "hh-sol-artifact-1",
  "contractName": "MasterChef",
  "sourceName": "contracts/masterchef/MasterChef.sol",
  "abi": [
    {
      "inputs": [
        {
          "internalType": "contract PcnToken",
          "name": "_cake",
          "type": "address"
        },
        {
          "internalType": "contract CornToken",
          "name": "_syrup",
          "type": "address"
        },
        {
          "internalType": "address",
          "name": "_devaddr",
          "type": "address"
        },
        {
          "internalType": "uint256",
          "name": "_cakePerBlock",
          "type": "uint256"
        },
        {
          "internalType": "uint256",
          "name": "_startBlock",
          "type": "uint256"
        }
      ],
      "stateMutability": "nonpayable",
      "type": "constructor"
    },
    {
      "anonymous": false,
      "inputs": [
        {
          "indexed": true,
          "internalType": "address",
          "name": "user",
          "type": "address"
        },
        {
          "indexed": true,
          "internalType": "uint256",
          "name": "pid",
          "type": "uint256"
        },
        {
          "indexed": false,
          "internalType": "uint256",
          "name": "amount",
          "type": "uint256"
        }
      ],
      "name": "Deposit",
      "type": "event"
    },
    {
      "anonymous": false,
      "inputs": [
        {
          "indexed": true,
          "internalType": "address",
          "name": "user",
          "type": "address"
        },
        {
          "indexed": true,
          "internalType": "uint256",
          "name": "pid",
          "type": "uint256"
        },
        {
          "indexed": false,
          "internalType": "uint256",
          "name": "amount",
          "type": "uint256"
        }
      ],
      "name": "EmergencyWithdraw",
      "type": "event"
    },
    {
      "anonymous": false,
      "inputs": [
        {
          "indexed": true,
          "internalType": "address",
          "name": "previousOwner",
          "type": "address"
        },
        {
          "indexed": true,
          "internalType": "address",
          "name": "newOwner",
          "type": "address"
        }
      ],
      "name": "OwnershipTransferred",
      "type": "event"
    },
    {
      "anonymous": false,
      "inputs": [
        {
          "indexed": true,
          "internalType": "address",
          "name": "user",
          "type": "address"
        },
        {
          "indexed": true,
          "internalType": "uint256",
          "name": "pid",
          "type": "uint256"
        },
        {
          "indexed": false,
          "internalType": "uint256",
          "name": "amount",
          "type": "uint256"
        }
      ],
      "name": "Withdraw",
      "type": "event"
    },
    {
      "inputs": [],
      "name": "BONUS_MULTIPLIER",
      "outputs": [
        {
          "internalType": "uint256",
          "name": "",
          "type": "uint256"
        }
      ],
      "stateMutability": "view",
      "type": "function"
    },
    {
      "inputs": [
        {
          "internalType": "uint256",
          "name": "_allocPoint",
          "type": "uint256"
        },
        {
          "internalType": "contract IERC20",
          "name": "_lpToken",
          "type": "address"
        },
        {
          "internalType": "bool",
          "name": "_withUpdate",
          "type": "bool"
        }
      ],
      "name": "add",
      "outputs": [],
      "stateMutability": "nonpayable",
      "type": "function"
    },
    {
      "inputs": [],
      "name": "cake",
      "outputs": [
        {
          "internalType": "contract PcnToken",
          "name": "",
          "type": "address"
        }
      ],
      "stateMutability": "view",
      "type": "function"
    },
    {
      "inputs": [],
      "name": "cakePerBlock",
      "outputs": [
        {
          "internalType": "uint256",
          "name": "",
          "type": "uint256"
        }
      ],
      "stateMutability": "view",
      "type": "function"
    },
    {
      "inputs": [
        {
          "internalType": "uint256",
          "name": "_pid",
          "type": "uint256"
        },
        {
          "internalType": "uint256",
          "name": "_amount",
          "type": "uint256"
        }
      ],
      "name": "deposit",
      "outputs": [],
      "stateMutability": "nonpayable",
      "type": "function"
    },
    {
      "inputs": [
        {
          "internalType": "address",
          "name": "_devaddr",
          "type": "address"
        }
      ],
      "name": "dev",
      "outputs": [],
      "stateMutability": "nonpayable",
      "type": "function"
    },
    {
      "inputs": [],
      "name": "devaddr",
      "outputs": [
        {
          "internalType": "address",
          "name": "",
          "type": "address"
        }
      ],
      "stateMutability": "view",
      "type": "function"
    },
    {
      "inputs": [
        {
          "internalType": "uint256",
          "name": "_pid",
          "type": "uint256"
        }
      ],
      "name": "emergencyWithdraw",
      "outputs": [],
      "stateMutability": "nonpayable",
      "type": "function"
    },
    {
      "inputs": [
        {
          "internalType": "uint256",
          "name": "_amount",
          "type": "uint256"
        }
      ],
      "name": "enterStaking",
      "outputs": [],
      "stateMutability": "nonpayable",
      "type": "function"
    },
    {
      "inputs": [
        {
          "internalType": "uint256",
          "name": "_from",
          "type": "uint256"
        },
        {
          "internalType": "uint256",
          "name": "_to",
          "type": "uint256"
        }
      ],
      "name": "getMultiplier",
      "outputs": [
        {
          "internalType": "uint256",
          "name": "",
          "type": "uint256"
        }
      ],
      "stateMutability": "view",
      "type": "function"
    },
    {
      "inputs": [
        {
          "internalType": "uint256",
          "name": "_amount",
          "type": "uint256"
        }
      ],
      "name": "leaveStaking",
      "outputs": [],
      "stateMutability": "nonpayable",
      "type": "function"
    },
    {
      "inputs": [],
      "name": "massUpdatePools",
      "outputs": [],
      "stateMutability": "nonpayable",
      "type": "function"
    },
    {
      "inputs": [
        {
          "internalType": "uint256",
          "name": "_pid",
          "type": "uint256"
        }
      ],
      "name": "migrate",
      "outputs": [],
      "stateMutability": "nonpayable",
      "type": "function"
    },
    {
      "inputs": [],
      "name": "migrator",
      "outputs": [
        {
          "internalType": "contract IMigratorChef",
          "name": "",
          "type": "address"
        }
      ],
      "stateMutability": "view",
      "type": "function"
    },
    {
      "inputs": [],
      "name": "owner",
      "outputs": [
        {
          "internalType": "address",
          "name": "",
          "type": "address"
        }
      ],
      "stateMutability": "view",
      "type": "function"
    },
    {
      "inputs": [
        {
          "internalType": "uint256",
          "name": "_pid",
          "type": "uint256"
        },
        {
          "internalType": "address",
          "name": "_user",
          "type": "address"
        }
      ],
      "name": "pendingCake",
      "outputs": [
        {
          "internalType": "uint256",
          "name": "",
          "type": "uint256"
        }
      ],
      "stateMutability": "view",
      "type": "function"
    },
    {
      "inputs": [
        {
          "internalType": "uint256",
          "name": "",
          "type": "uint256"
        }
      ],
      "name": "poolInfo",
      "outputs": [
        {
          "internalType": "contract IERC20",
          "name": "lpToken",
          "type": "address"
        },
        {
          "internalType": "uint256",
          "name": "allocPoint",
          "type": "uint256"
        },
        {
          "internalType": "uint256",
          "name": "lastRewardBlock",
          "type": "uint256"
        },
        {
          "internalType": "uint256",
          "name": "accCakePerShare",
          "type": "uint256"
        }
      ],
      "stateMutability": "view",
      "type": "function"
    },
    {
      "inputs": [],
      "name": "poolLength",
      "outputs": [
        {
          "internalType": "uint256",
          "name": "",
          "type": "uint256"
        }
      ],
      "stateMutability": "view",
      "type": "function"
    },
    {
      "inputs": [],
      "name": "renounceOwnership",
      "outputs": [],
      "stateMutability": "nonpayable",
      "type": "function"
    },
    {
      "inputs": [
        {
          "internalType": "uint256",
          "name": "_pid",
          "type": "uint256"
        },
        {
          "internalType": "uint256",
          "name": "_allocPoint",
          "type": "uint256"
        },
        {
          "internalType": "bool",
          "name": "_withUpdate",
          "type": "bool"
        }
      ],
      "name": "set",
      "outputs": [],
      "stateMutability": "nonpayable",
      "type": "function"
    },
    {
      "inputs": [
        {
          "internalType": "contract IMigratorChef",
          "name": "_migrator",
          "type": "address"
        }
      ],
      "name": "setMigrator",
      "outputs": [],
      "stateMutability": "nonpayable",
      "type": "function"
    },
    {
      "inputs": [],
      "name": "startBlock",
      "outputs": [
        {
          "internalType": "uint256",
          "name": "",
          "type": "uint256"
        }
      ],
      "stateMutability": "view",
      "type": "function"
    },
    {
      "inputs": [],
      "name": "syrup",
      "outputs": [
        {
          "internalType": "contract CornToken",
          "name": "",
          "type": "address"
        }
      ],
      "stateMutability": "view",
      "type": "function"
    },
    {
      "inputs": [],
      "name": "totalAllocPoint",
      "outputs": [
        {
          "internalType": "uint256",
          "name": "",
          "type": "uint256"
        }
      ],
      "stateMutability": "view",
      "type": "function"
    },
    {
      "inputs": [
        {
          "internalType": "address",
          "name": "newOwner",
          "type": "address"
        }
      ],
      "name": "transferOwnership",
      "outputs": [],
      "stateMutability": "nonpayable",
      "type": "function"
    },
    {
      "inputs": [
        {
          "internalType": "uint256",
          "name": "multiplierNumber",
          "type": "uint256"
        }
      ],
      "name": "updateMultiplier",
      "outputs": [],
      "stateMutability": "nonpayable",
      "type": "function"
    },
    {
      "inputs": [
        {
          "internalType": "uint256",
          "name": "_pid",
          "type": "uint256"
        }
      ],
      "name": "updatePool",
      "outputs": [],
      "stateMutability": "nonpayable",
      "type": "function"
    },
    {
      "inputs": [
        {
          "internalType": "uint256",
          "name": "",
          "type": "uint256"
        },
        {
          "internalType": "address",
          "name": "",
          "type": "address"
        }
      ],
      "name": "userInfo",
      "outputs": [
        {
          "internalType": "uint256",
          "name": "amount",
          "type": "uint256"
        },
        {
          "internalType": "uint256",
          "name": "rewardDebt",
          "type": "uint256"
        }
      ],
      "stateMutability": "view",
      "type": "function"
    },
    {
      "inputs": [
        {
          "internalType": "uint256",
          "name": "_pid",
          "type": "uint256"
        },
        {
          "internalType": "uint256",
          "name": "_amount",
          "type": "uint256"
        }
      ],
      "name": "withdraw",
      "outputs": [],
      "stateMutability": "nonpayable",
      "type": "function"
    }
  ],
  "bytecode": "0x6080604052600160055560006009553480156200001b57600080fd5b50604051620022f5380380620022f58339810160408190526200003e91620001d7565b620000526200004c62000183565b62000187565b600180546001600160a01b03199081166001600160a01b03978816908117835560028054831697891697909717909655600380548216958816959095179094556004928355600a829055604080516080810182529586526103e86020870181815291870193845260006060880181815260078054958601815590915296517fa66cc928b5edb82af9bd49922954155ab7b0942694bea4ce44661d9a8736c688939095029283018054909616949097169390931790935590517fa66cc928b5edb82af9bd49922954155ab7b0942694bea4ce44661d9a8736c689830155517fa66cc928b5edb82af9bd49922954155ab7b0942694bea4ce44661d9a8736c68a82015590517fa66cc928b5edb82af9bd49922954155ab7b0942694bea4ce44661d9a8736c68b9091015560095562000254565b3390565b600080546001600160a01b038381166001600160a01b0319831681178455604051919092169283917f8be0079c531659141344cd1fd0a4f28419497f9722a3daafe3b4186f6b6457e09190a35050565b600080600080600060a08688031215620001ef578081fd5b8551620001fc816200023b565b60208701519095506200020f816200023b565b604087015190945062000222816200023b565b6060870151608090970151959894975095949392505050565b6001600160a01b03811681146200025157600080fd5b50565b61209180620002646000396000f3fe608060405234801561001057600080fd5b50600436106101cf5760003560e01c80635ffe6146116101045780638d88a90e116100a2578063d49e77cd11610071578063d49e77cd14610384578063dce174841461038c578063e2bbb15814610394578063f2fde38b146103a7576101cf565b80638d88a90e146103355780638da5cb5b146103485780638dbb1e3a1461035057806393f1a40b14610363576101cf565b8063715018a6116100de578063715018a6146103085780637cd07e471461031057806386a952c4146103255780638aa285501461032d576101cf565b80635ffe6146146102da578063630b5ba1146102ed57806364482f79146102f5576101cf565b806323cf311811610171578063454b06081161014b578063454b06081461029957806348cd4cb1146102ac57806351eb05a6146102b45780635312ea8e146102c7576101cf565b806323cf31181461026057806341441d3b14610273578063441a3e7014610286576101cf565b80631175a1dd116101ad5780631175a1dd1461020f5780631526fe271461022257806317caf6f1146102455780631eaaa0451461024d576101cf565b80630755e0b6146101d4578063081e3eda146101f25780631058d281146101fa575b600080fd5b6101dc6103ba565b6040516101e99190611f56565b60405180910390f35b6101dc6103c0565b61020d610208366004611adf565b6103c6565b005b6101dc61021d366004611b0f565b6105a1565b610235610230366004611adf565b610725565b6040516101e99493929190611c54565b6101dc610769565b61020d61025b366004611b3e565b61076f565b61020d61026e366004611a8b565b6108dc565b61020d610281366004611adf565b61093d565b61020d610294366004611b7f565b610ae9565b61020d6102a7366004611adf565b610c48565b6101dc610e81565b61020d6102c2366004611adf565b610e87565b61020d6102d5366004611adf565b6110b5565b61020d6102e8366004611adf565b611168565b61020d6111ac565b61020d610303366004611ba0565b6111d7565b61020d6112c3565b61031861130e565b6040516101e99190611be9565b61031861131d565b6101dc61132c565b61020d610343366004611a8b565b611332565b61031861137e565b6101dc61035e366004611b7f565b61138d565b610376610371366004611b0f565b6113a8565b6040516101e9929190611f5f565b6103186113cc565b6103186113db565b61020d6103a2366004611b7f565b6113ea565b61020d6103b5366004611a8b565b611524565b60045481565b60075490565b600060076000815481106103ea57634e487b7160e01b600052603260045260246000fd5b600091825260208083203384527f5eff886ea0ce6ca488a3d6e336d6c0f75f46d19b42c06ce5ee98e42c96d256c790915260409092208054600490920290920192508311156104545760405162461bcd60e51b815260040161044b90611dff565b60405180910390fd5b61045e6000610e87565b6000610498826001015461049264e8d4a5100061048c8760030154876000015461159290919063ffffffff16565b9061159e565b906115aa565b905080156104aa576104aa33826115b6565b83156104d45781546104bc90856115aa565b825582546104d4906001600160a01b0316338661161e565b600383015482546104ef9164e8d4a510009161048c91611592565b6001830155600254604051632770a7eb60e21b81526001600160a01b0390911690639dc29fac906105269033908890600401611c3b565b600060405180830381600087803b15801561054057600080fd5b505af1158015610554573d6000803e3d6000fd5b505050506000336001600160a01b03167ff279e6a1f5e320cca91135676d9cb6e44ca8a08c0b88342bcdb1144f6511b568866040516105939190611f56565b60405180910390a350505050565b600080600784815481106105c557634e487b7160e01b600052603260045260246000fd5b600091825260208083208784526008825260408085206001600160a01b038981168752935280852060049485029092016003810154815492516370a0823160e01b815291975092959294929391909116916370a082319161062891309101611be9565b60206040518083038186803b15801561064057600080fd5b505afa158015610654573d6000803e3d6000fd5b505050506040513d601f19601f820116820180604052508101906106789190611af7565b905083600201544311801561068c57508015155b156106f25760006106a185600201544361138d565b905060006106ce60095461048c88600101546106c86004548761159290919063ffffffff16565b90611592565b90506106ed6106e68461048c8464e8d4a51000611592565b8590611679565b935050505b61071a836001015461049264e8d4a5100061048c86886000015461159290919063ffffffff16565b979650505050505050565b6007818154811061073557600080fd5b600091825260209091206004909102018054600182015460028301546003909301546001600160a01b039092169350919084565b60095481565b610777611685565b6001600160a01b031661078861137e565b6001600160a01b0316146107ae5760405162461bcd60e51b815260040161044b90611d93565b80156107bc576107bc6111ac565b6000600a5443116107cf57600a546107d1565b435b6009549091506107e19085611679565b600955604080516080810182526001600160a01b0385811682526020820187815292820184815260006060840181815260078054600181018255925293517fa66cc928b5edb82af9bd49922954155ab7b0942694bea4ce44661d9a8736c688600490920291820180546001600160a01b031916919094161790925592517fa66cc928b5edb82af9bd49922954155ab7b0942694bea4ce44661d9a8736c68982015591517fa66cc928b5edb82af9bd49922954155ab7b0942694bea4ce44661d9a8736c68a830155517fa66cc928b5edb82af9bd49922954155ab7b0942694bea4ce44661d9a8736c68b909101556108d6611689565b50505050565b6108e4611685565b6001600160a01b03166108f561137e565b6001600160a01b03161461091b5760405162461bcd60e51b815260040161044b90611d93565b600680546001600160a01b0319166001600160a01b0392909216919091179055565b6000600760008154811061096157634e487b7160e01b600052603260045260246000fd5b600091825260208083203384527f5eff886ea0ce6ca488a3d6e336d6c0f75f46d19b42c06ce5ee98e42c96d256c7909152604083206004909202019250906109a890610e87565b8054156109f15760006109dd826001015461049264e8d4a5100061048c8760030154876000015461159290919063ffffffff16565b905080156109ef576109ef33826115b6565b505b8215610a1d578154610a0e906001600160a01b0316333086611792565b8054610a1a9084611679565b81555b60038201548154610a389164e8d4a510009161048c91611592565b60018201556002546040516340c10f1960e01b81526001600160a01b03909116906340c10f1990610a6f9033908790600401611c3b565b600060405180830381600087803b158015610a8957600080fd5b505af1158015610a9d573d6000803e3d6000fd5b505050506000336001600160a01b03167f90890809c654f11d6e72a28fa60149770a0d11ec6c92319d6ceb2bb0a4ea1a1585604051610adc9190611f56565b60405180910390a3505050565b81610b065760405162461bcd60e51b815260040161044b90611e2b565b600060078381548110610b2957634e487b7160e01b600052603260045260246000fd5b600091825260208083208684526008825260408085203386529092529220805460049092029092019250831115610b725760405162461bcd60e51b815260040161044b90611dff565b610b7b84610e87565b6000610ba9826001015461049264e8d4a5100061048c8760030154876000015461159290919063ffffffff16565b90508015610bbb57610bbb33826115b6565b8315610be5578154610bcd90856115aa565b82558254610be5906001600160a01b0316338661161e565b60038301548254610c009164e8d4a510009161048c91611592565b6001830155604051859033907ff279e6a1f5e320cca91135676d9cb6e44ca8a08c0b88342bcdb1144f6511b56890610c39908890611f56565b60405180910390a35050505050565b6006546001600160a01b0316610c705760405162461bcd60e51b815260040161044b90611f28565b600060078281548110610c9357634e487b7160e01b600052603260045260246000fd5b60009182526020822060049182020180546040516370a0823160e01b81529194506001600160a01b0316929183916370a0823191610cd391309101611be9565b60206040518083038186803b158015610ceb57600080fd5b505afa158015610cff573d6000803e3d6000fd5b505050506040513d601f19601f82011682018060405250810190610d239190611af7565b600654909150610d40906001600160a01b038481169116836117b3565b60065460405163ce5494bb60e01b81526000916001600160a01b03169063ce5494bb90610d71908690600401611be9565b602060405180830381600087803b158015610d8b57600080fd5b505af1158015610d9f573d6000803e3d6000fd5b505050506040513d601f19601f82011682018060405250810190610dc39190611ac3565b6040516370a0823160e01b81529091506001600160a01b038216906370a0823190610df2903090600401611be9565b60206040518083038186803b158015610e0a57600080fd5b505afa158015610e1e573d6000803e3d6000fd5b505050506040513d601f19601f82011682018060405250810190610e429190611af7565b8214610e605760405162461bcd60e51b815260040161044b90611eac565b83546001600160a01b0319166001600160a01b039190911617909255505050565b600a5481565b600060078281548110610eaa57634e487b7160e01b600052603260045260246000fd5b9060005260206000209060040201905080600201544311610ecb57506110b2565b80546040516370a0823160e01b81526000916001600160a01b0316906370a0823190610efb903090600401611be9565b60206040518083038186803b158015610f1357600080fd5b505afa158015610f27573d6000803e3d6000fd5b505050506040513d601f19601f82011682018060405250810190610f4b9190611af7565b905080610f5f5750436002909101556110b2565b6000610f6f83600201544361138d565b90506000610f9660095461048c86600101546106c86004548761159290919063ffffffff16565b6001546003549192506001600160a01b03908116916340c10f199116610fbd84600a61159e565b6040518363ffffffff1660e01b8152600401610fda929190611c3b565b600060405180830381600087803b158015610ff457600080fd5b505af1158015611008573d6000803e3d6000fd5b50506001546002546040516340c10f1960e01b81526001600160a01b0392831694506340c10f19935061104392909116908590600401611c3b565b600060405180830381600087803b15801561105d57600080fd5b505af1158015611071573d6000803e3d6000fd5b5050505061109f6110948461048c64e8d4a510008561159290919063ffffffff16565b600386015490611679565b6003850155505043600290920191909155505b50565b6000600782815481106110d857634e487b7160e01b600052603260045260246000fd5b6000918252602080832085845260088252604080852033808752935290932080546004909302909301805490945061111d926001600160a01b0391909116919061161e565b8054604051849133917fbb757047c2b5f3974fe26b7c10f732e7bce710b0952a71082702781e62ae05959161115191611f56565b60405180910390a360008082556001909101555050565b611170611685565b6001600160a01b031661118161137e565b6001600160a01b0316146111a75760405162461bcd60e51b815260040161044b90611d93565b600555565b60075460005b818110156111d3576111c381610e87565b6111cc81612007565b90506111b2565b5050565b6111df611685565b6001600160a01b03166111f061137e565b6001600160a01b0316146112165760405162461bcd60e51b815260040161044b90611d93565b8015611224576112246111ac565b60006007848154811061124757634e487b7160e01b600052603260045260246000fd5b9060005260206000209060040201600101549050826007858154811061127d57634e487b7160e01b600052603260045260246000fd5b9060005260206000209060040201600101819055508281146108d6576112b8836112b2836009546115aa90919063ffffffff16565b90611679565b6009556108d6611689565b6112cb611685565b6001600160a01b03166112dc61137e565b6001600160a01b0316146113025760405162461bcd60e51b815260040161044b90611d93565b61130c6000611876565b565b6006546001600160a01b031681565b6002546001600160a01b031681565b60055481565b6003546001600160a01b0316331461135c5760405162461bcd60e51b815260040161044b90611d70565b600380546001600160a01b0319166001600160a01b0392909216919091179055565b6000546001600160a01b031690565b6005546000906113a1906106c884866115aa565b9392505050565b60086020908152600092835260408084209091529082529020805460019091015482565b6003546001600160a01b031681565b6001546001600160a01b031681565b816114075760405162461bcd60e51b815260040161044b90611d39565b60006007838154811061142a57634e487b7160e01b600052603260045260246000fd5b6000918252602080832086845260088252604080852033865290925292206004909102909101915061145b84610e87565b8054156114a4576000611490826001015461049264e8d4a5100061048c8760030154876000015461159290919063ffffffff16565b905080156114a2576114a233826115b6565b505b82156114d05781546114c1906001600160a01b0316333086611792565b80546114cd9084611679565b81555b600382015481546114eb9164e8d4a510009161048c91611592565b6001820155604051849033907f90890809c654f11d6e72a28fa60149770a0d11ec6c92319d6ceb2bb0a4ea1a1590610593908790611f56565b61152c611685565b6001600160a01b031661153d61137e565b6001600160a01b0316146115635760405162461bcd60e51b815260040161044b90611d93565b6001600160a01b0381166115895760405162461bcd60e51b815260040161044b90611cad565b6110b281611876565b60006113a18284611fa5565b60006113a18284611f85565b60006113a18284611fc4565b6002546040516328b9b77360e21b81526001600160a01b039091169063a2e6ddcc906115e89085908590600401611c3b565b600060405180830381600087803b15801561160257600080fd5b505af1158015611616573d6000803e3d6000fd5b505050505050565b6116748363a9059cbb60e01b848460405160240161163d929190611c3b565b60408051601f198184030181529190526020810180516001600160e01b03166001600160e01b0319909316929092179091526118c6565b505050565b60006113a18284611f6d565b3390565b600754600060015b828110156116f0576116de600782815481106116bd57634e487b7160e01b600052603260045260246000fd5b9060005260206000209060040201600101548361167990919063ffffffff16565b91506116e981612007565b9050611691565b5080156111d35761170281600361159e565b9050611750816112b2600760008154811061172d57634e487b7160e01b600052603260045260246000fd5b9060005260206000209060040201600101546009546115aa90919063ffffffff16565b60098190555080600760008154811061177957634e487b7160e01b600052603260045260246000fd5b9060005260206000209060040201600101819055505050565b6108d6846323b872dd60e01b85858560405160240161163d93929190611c17565b80158061183b5750604051636eb1769f60e11b81526001600160a01b0384169063dd62ed3e906117e99030908690600401611bfd565b60206040518083038186803b15801561180157600080fd5b505afa158015611815573d6000803e3d6000fd5b505050506040513d601f19601f820116820180604052508101906118399190611af7565b155b6118575760405162461bcd60e51b815260040161044b90611ed2565b6116748363095ea7b360e01b848460405160240161163d929190611c3b565b600080546001600160a01b038381166001600160a01b0319831681178455604051919092169283917f8be0079c531659141344cd1fd0a4f28419497f9722a3daafe3b4186f6b6457e09190a35050565b600061191b826040518060400160405280602081526020017f5361666545524332303a206c6f772d6c6576656c2063616c6c206661696c6564815250856001600160a01b03166119559092919063ffffffff16565b80519091501561167457808060200190518101906119399190611aa7565b6116745760405162461bcd60e51b815260040161044b90611e62565b6060611964848460008561196c565b949350505050565b60608247101561198e5760405162461bcd60e51b815260040161044b90611cf3565b61199785611a21565b6119b35760405162461bcd60e51b815260040161044b90611dc8565b600080866001600160a01b031685876040516119cf9190611bcd565b60006040518083038185875af1925050503d8060008114611a0c576040519150601f19603f3d011682016040523d82523d6000602084013e611a11565b606091505b509150915061071a828286611a52565b600080826001600160a01b0316803b806020016040519081016040528181526000908060200190933c511192915050565b60608315611a615750816113a1565b825115611a715782518084602001fd5b8160405162461bcd60e51b815260040161044b9190611c7a565b600060208284031215611a9c578081fd5b81356113a181612038565b600060208284031215611ab8578081fd5b81516113a18161204d565b600060208284031215611ad4578081fd5b81516113a181612038565b600060208284031215611af0578081fd5b5035919050565b600060208284031215611b08578081fd5b5051919050565b60008060408385031215611b21578081fd5b823591506020830135611b3381612038565b809150509250929050565b600080600060608486031215611b52578081fd5b833592506020840135611b6481612038565b91506040840135611b748161204d565b809150509250925092565b60008060408385031215611b91578182fd5b50508035926020909101359150565b600080600060608486031215611bb4578283fd5b83359250602084013591506040840135611b748161204d565b60008251611bdf818460208701611fdb565b9190910192915050565b6001600160a01b0391909116815260200190565b6001600160a01b0392831681529116602082015260400190565b6001600160a01b039384168152919092166020820152604081019190915260600190565b6001600160a01b03929092168252602082015260400190565b6001600160a01b0394909416845260208401929092526040830152606082015260800190565b6000602082528251806020840152611c99816040850160208701611fdb565b601f01601f19169190910160400192915050565b60208082526026908201527f4f776e61626c653a206e6577206f776e657220697320746865207a65726f206160408201526564647265737360d01b606082015260800190565b60208082526026908201527f416464726573733a20696e73756666696369656e742062616c616e636520666f6040820152651c8818d85b1b60d21b606082015260800190565b60208082526017908201527f6465706f7369742043414b45206279207374616b696e67000000000000000000604082015260600190565b6020808252600990820152686465763a207775743f60b81b604082015260600190565b6020808252818101527f4f776e61626c653a2063616c6c6572206973206e6f7420746865206f776e6572604082015260600190565b6020808252601d908201527f416464726573733a2063616c6c20746f206e6f6e2d636f6e7472616374000000604082015260600190565b6020808252601290820152711dda5d1a191c985dce881b9bdd0819dbdbd960721b604082015260600190565b6020808252601a908201527f77697468647261772043414b4520627920756e7374616b696e67000000000000604082015260600190565b6020808252602a908201527f5361666545524332303a204552433230206f7065726174696f6e20646964206e6040820152691bdd081cdd58d8d9595960b21b606082015260800190565b6020808252600c908201526b1b5a59dc985d194e8818985960a21b604082015260600190565b60208082526036908201527f5361666545524332303a20617070726f76652066726f6d206e6f6e2d7a65726f60408201527520746f206e6f6e2d7a65726f20616c6c6f77616e636560501b606082015260800190565b60208082526014908201527336b4b3b930ba329d1037379036b4b3b930ba37b960611b604082015260600190565b90815260200190565b918252602082015260400190565b60008219821115611f8057611f80612022565b500190565b600082611fa057634e487b7160e01b81526012600452602481fd5b500490565b6000816000190483118215151615611fbf57611fbf612022565b500290565b600082821015611fd657611fd6612022565b500390565b60005b83811015611ff6578181015183820152602001611fde565b838111156108d65750506000910152565b600060001982141561201b5761201b612022565b5060010190565b634e487b7160e01b600052601160045260246000fd5b6001600160a01b03811681146110b257600080fd5b80151581146110b257600080fdfea2646970667358221220f99707864c2b59e3dab74c718a7bb4c752c11fb5b8dd4e1b37a500b6e3f095e764736f6c63430008000033",
  "linkReferences": {},
  "deployedLinkReferences": {}
}